{
  "address": "0x24A6A37576377F63f194Caa5F518a60f45b42921",
  "abi": [
    {
      "anonymous": false,
      "inputs": [
        {
          "indexed": true,
          "internalType": "address",
          "name": "owner",
          "type": "address"
        },
        {
          "indexed": true,
          "internalType": "address",
          "name": "spender",
          "type": "address"
        },
        {
          "indexed": false,
          "internalType": "uint256",
          "name": "value",
          "type": "uint256"
        }
      ],
      "name": "Approval",
      "type": "event"
    },
    {
      "anonymous": false,
      "inputs": [
        {
          "indexed": false,
          "internalType": "address",
          "name": "account",
          "type": "address"
        }
      ],
      "name": "Paused",
      "type": "event"
    },
    {
      "anonymous": false,
      "inputs": [
        {
          "indexed": true,
          "internalType": "bytes32",
          "name": "role",
          "type": "bytes32"
        },
        {
          "indexed": true,
          "internalType": "bytes32",
          "name": "previousAdminRole",
          "type": "bytes32"
        },
        {
          "indexed": true,
          "internalType": "bytes32",
          "name": "newAdminRole",
          "type": "bytes32"
        }
      ],
      "name": "RoleAdminChanged",
      "type": "event"
    },
    {
      "anonymous": false,
      "inputs": [
        {
          "indexed": true,
          "internalType": "bytes32",
          "name": "role",
          "type": "bytes32"
        },
        {
          "indexed": true,
          "internalType": "address",
          "name": "account",
          "type": "address"
        },
        {
          "indexed": true,
          "internalType": "address",
          "name": "sender",
          "type": "address"
        }
      ],
      "name": "RoleGranted",
      "type": "event"
    },
    {
      "anonymous": false,
      "inputs": [
        {
          "indexed": true,
          "internalType": "bytes32",
          "name": "role",
          "type": "bytes32"
        },
        {
          "indexed": true,
          "internalType": "address",
          "name": "account",
          "type": "address"
        },
        {
          "indexed": true,
          "internalType": "address",
          "name": "sender",
          "type": "address"
        }
      ],
      "name": "RoleRevoked",
      "type": "event"
    },
    {
      "anonymous": false,
      "inputs": [
        {
          "indexed": true,
          "internalType": "address",
          "name": "from",
          "type": "address"
        },
        {
          "indexed": true,
          "internalType": "address",
          "name": "to",
          "type": "address"
        },
        {
          "indexed": false,
          "internalType": "uint256",
          "name": "value",
          "type": "uint256"
        }
      ],
      "name": "Transfer",
      "type": "event"
    },
    {
      "anonymous": false,
      "inputs": [
        {
          "indexed": false,
          "internalType": "address",
          "name": "account",
          "type": "address"
        }
      ],
      "name": "Unpaused",
      "type": "event"
    },
    {
      "inputs": [],
      "name": "DEFAULT_ADMIN_ROLE",
      "outputs": [
        {
          "internalType": "bytes32",
          "name": "",
          "type": "bytes32"
        }
      ],
      "stateMutability": "view",
      "type": "function"
    },
    {
      "inputs": [],
      "name": "MINTER_ROLE",
      "outputs": [
        {
          "internalType": "bytes32",
          "name": "",
          "type": "bytes32"
        }
      ],
      "stateMutability": "view",
      "type": "function"
    },
    {
      "inputs": [],
      "name": "PAUSER_ROLE",
      "outputs": [
        {
          "internalType": "bytes32",
          "name": "",
          "type": "bytes32"
        }
      ],
      "stateMutability": "view",
      "type": "function"
    },
    {
      "inputs": [
        {
          "internalType": "address",
          "name": "owner",
          "type": "address"
        },
        {
          "internalType": "address",
          "name": "spender",
          "type": "address"
        }
      ],
      "name": "allowance",
      "outputs": [
        {
          "internalType": "uint256",
          "name": "",
          "type": "uint256"
        }
      ],
      "stateMutability": "view",
      "type": "function"
    },
    {
      "inputs": [
        {
          "internalType": "address",
          "name": "spender",
          "type": "address"
        },
        {
          "internalType": "uint256",
          "name": "amount",
          "type": "uint256"
        }
      ],
      "name": "approve",
      "outputs": [
        {
          "internalType": "bool",
          "name": "",
          "type": "bool"
        }
      ],
      "stateMutability": "nonpayable",
      "type": "function"
    },
    {
      "inputs": [
        {
          "internalType": "address",
          "name": "account",
          "type": "address"
        }
      ],
      "name": "balanceOf",
      "outputs": [
        {
          "internalType": "uint256",
          "name": "",
          "type": "uint256"
        }
      ],
      "stateMutability": "view",
      "type": "function"
    },
    {
      "inputs": [],
      "name": "decimals",
      "outputs": [
        {
          "internalType": "uint8",
          "name": "",
          "type": "uint8"
        }
      ],
      "stateMutability": "view",
      "type": "function"
    },
    {
      "inputs": [
        {
          "internalType": "address",
          "name": "spender",
          "type": "address"
        },
        {
          "internalType": "uint256",
          "name": "subtractedValue",
          "type": "uint256"
        }
      ],
      "name": "decreaseAllowance",
      "outputs": [
        {
          "internalType": "bool",
          "name": "",
          "type": "bool"
        }
      ],
      "stateMutability": "nonpayable",
      "type": "function"
    },
    {
      "inputs": [
        {
          "internalType": "bytes32",
          "name": "role",
          "type": "bytes32"
        }
      ],
      "name": "getRoleAdmin",
      "outputs": [
        {
          "internalType": "bytes32",
          "name": "",
          "type": "bytes32"
        }
      ],
      "stateMutability": "view",
      "type": "function"
    },
    {
      "inputs": [
        {
          "internalType": "bytes32",
          "name": "role",
          "type": "bytes32"
        },
        {
          "internalType": "uint256",
          "name": "index",
          "type": "uint256"
        }
      ],
      "name": "getRoleMember",
      "outputs": [
        {
          "internalType": "address",
          "name": "",
          "type": "address"
        }
      ],
      "stateMutability": "view",
      "type": "function"
    },
    {
      "inputs": [
        {
          "internalType": "bytes32",
          "name": "role",
          "type": "bytes32"
        }
      ],
      "name": "getRoleMemberCount",
      "outputs": [
        {
          "internalType": "uint256",
          "name": "",
          "type": "uint256"
        }
      ],
      "stateMutability": "view",
      "type": "function"
    },
    {
      "inputs": [
        {
          "internalType": "bytes32",
          "name": "role",
          "type": "bytes32"
        },
        {
          "internalType": "address",
          "name": "account",
          "type": "address"
        }
      ],
      "name": "grantRole",
      "outputs": [],
      "stateMutability": "nonpayable",
      "type": "function"
    },
    {
      "inputs": [
        {
          "internalType": "bytes32",
          "name": "role",
          "type": "bytes32"
        },
        {
          "internalType": "address",
          "name": "account",
          "type": "address"
        }
      ],
      "name": "hasRole",
      "outputs": [
        {
          "internalType": "bool",
          "name": "",
          "type": "bool"
        }
      ],
      "stateMutability": "view",
      "type": "function"
    },
    {
      "inputs": [
        {
          "internalType": "address",
          "name": "spender",
          "type": "address"
        },
        {
          "internalType": "uint256",
          "name": "addedValue",
          "type": "uint256"
        }
      ],
      "name": "increaseAllowance",
      "outputs": [
        {
          "internalType": "bool",
          "name": "",
          "type": "bool"
        }
      ],
      "stateMutability": "nonpayable",
      "type": "function"
    },
    {
      "inputs": [
        {
          "internalType": "address",
          "name": "admin",
          "type": "address"
        },
        {
          "internalType": "address",
          "name": "minter",
          "type": "address"
        }
      ],
      "name": "initialize",
      "outputs": [],
      "stateMutability": "nonpayable",
      "type": "function"
    },
    {
      "inputs": [
        {
          "internalType": "address",
          "name": "to",
          "type": "address"
        },
        {
          "internalType": "uint256",
          "name": "amount",
          "type": "uint256"
        }
      ],
      "name": "mint",
      "outputs": [],
      "stateMutability": "nonpayable",
      "type": "function"
    },
    {
      "inputs": [],
      "name": "name",
      "outputs": [
        {
          "internalType": "string",
          "name": "",
          "type": "string"
        }
      ],
      "stateMutability": "view",
      "type": "function"
    },
    {
      "inputs": [],
      "name": "pause",
      "outputs": [],
      "stateMutability": "nonpayable",
      "type": "function"
    },
    {
      "inputs": [],
      "name": "paused",
      "outputs": [
        {
          "internalType": "bool",
          "name": "",
          "type": "bool"
        }
      ],
      "stateMutability": "view",
      "type": "function"
    },
    {
      "inputs": [
        {
          "internalType": "bytes32",
          "name": "role",
          "type": "bytes32"
        },
        {
          "internalType": "address",
          "name": "account",
          "type": "address"
        }
      ],
      "name": "renounceRole",
      "outputs": [],
      "stateMutability": "nonpayable",
      "type": "function"
    },
    {
      "inputs": [
        {
          "internalType": "bytes32",
          "name": "role",
          "type": "bytes32"
        },
        {
          "internalType": "address",
          "name": "account",
          "type": "address"
        }
      ],
      "name": "revokeRole",
      "outputs": [],
      "stateMutability": "nonpayable",
      "type": "function"
    },
    {
      "inputs": [],
      "name": "symbol",
      "outputs": [
        {
          "internalType": "string",
          "name": "",
          "type": "string"
        }
      ],
      "stateMutability": "view",
      "type": "function"
    },
    {
      "inputs": [],
      "name": "totalSupply",
      "outputs": [
        {
          "internalType": "uint256",
          "name": "",
          "type": "uint256"
        }
      ],
      "stateMutability": "view",
      "type": "function"
    },
    {
      "inputs": [
        {
          "internalType": "address",
          "name": "recipient",
          "type": "address"
        },
        {
          "internalType": "uint256",
          "name": "amount",
          "type": "uint256"
        }
      ],
      "name": "transfer",
      "outputs": [
        {
          "internalType": "bool",
          "name": "",
          "type": "bool"
        }
      ],
      "stateMutability": "nonpayable",
      "type": "function"
    },
    {
      "inputs": [
        {
          "internalType": "address",
          "name": "sender",
          "type": "address"
        },
        {
          "internalType": "address",
          "name": "recipient",
          "type": "address"
        },
        {
          "internalType": "uint256",
          "name": "amount",
          "type": "uint256"
        }
      ],
      "name": "transferFrom",
      "outputs": [
        {
          "internalType": "bool",
          "name": "",
          "type": "bool"
        }
      ],
      "stateMutability": "nonpayable",
      "type": "function"
    },
    {
      "inputs": [],
      "name": "unpause",
      "outputs": [],
      "stateMutability": "nonpayable",
      "type": "function"
    }
  ],
  "transactionHash": "0xfe962a005cc561d4139982d2f7310f8bb9f253166a5cd124442af68ab8bd40e6",
  "args": [
    "0xdE4B9cBaD10cdFf96eE4b1f9C7568283e96C0089",
    "0x2B84260068A16B8d32fB8f5940FCE559511851f5"
  ],
  "bytecode": "0x608060405234801561001057600080fd5b5061211b806100206000396000f3fe608060405234801561001057600080fd5b50600436106101ae5760003560e01c806370a08231116100ee578063a457c2d711610097578063d539139311610071578063d5391393146105a5578063d547741f146105ad578063dd62ed3e146105e6578063e63ab1e914610621576101ae565b8063a457c2d714610516578063a9059cbb1461054f578063ca15c87314610588576101ae565b806391d14854116100c857806391d14854146104cd57806395d89b4114610506578063a217fddf1461050e576101ae565b806370a08231146104465780638456cb59146104795780639010d07c14610481576101ae565b8063313ce5671161015b5780633f4ba83a116101355780633f4ba83a146103c257806340c10f19146103ca578063485cc955146104035780635c975abb1461043e576101ae565b8063313ce5671461033257806336568abe146103505780633950935114610389576101ae565b806323b872dd1161018c57806323b872dd14610297578063248a9ca3146102da5780632f2ff15d146102f7576101ae565b806306fdde03146101b3578063095ea7b31461023057806318160ddd1461027d575b600080fd5b6101bb610629565b6040805160208082528351818301528351919283929083019185019080838360005b838110156101f55781810151838201526020016101dd565b50505050905090810190601f1680156102225780820380516001836020036101000a031916815260200191505b509250505060405180910390f35b6102696004803603604081101561024657600080fd5b5073ffffffffffffffffffffffffffffffffffffffff81351690602001356106dd565b604080519115158252519081900360200190f35b6102856106fb565b60408051918252519081900360200190f35b610269600480360360608110156102ad57600080fd5b5073ffffffffffffffffffffffffffffffffffffffff813581169160208101359091169060400135610701565b610285600480360360208110156102f057600080fd5b50356107a2565b6103306004803603604081101561030d57600080fd5b508035906020013573ffffffffffffffffffffffffffffffffffffffff166107b7565b005b61033a61083d565b6040805160ff9092168252519081900360200190f35b6103306004803603604081101561036657600080fd5b508035906020013573ffffffffffffffffffffffffffffffffffffffff16610846565b6102696004803603604081101561039f57600080fd5b5073ffffffffffffffffffffffffffffffffffffffff81351690602001356108db565b610330610936565b610330600480360360408110156103e057600080fd5b5073ffffffffffffffffffffffffffffffffffffffff81351690602001356109c1565b6103306004803603604081101561041957600080fd5b5073ffffffffffffffffffffffffffffffffffffffff81358116916020013516610a4c565b610269610c5f565b6102856004803603602081101561045c57600080fd5b503573ffffffffffffffffffffffffffffffffffffffff16610c68565b610330610c90565b6104a46004803603604081101561049757600080fd5b5080359060200135610d19565b6040805173ffffffffffffffffffffffffffffffffffffffff9092168252519081900360200190f35b610269600480360360408110156104e357600080fd5b508035906020013573ffffffffffffffffffffffffffffffffffffffff16610d38565b6101bb610d50565b610285610dcf565b6102696004803603604081101561052c57600080fd5b5073ffffffffffffffffffffffffffffffffffffffff8135169060200135610dd4565b6102696004803603604081101561056557600080fd5b5073ffffffffffffffffffffffffffffffffffffffff8135169060200135610e49565b6102856004803603602081101561059e57600080fd5b5035610e5d565b610285610e74565b610330600480360360408110156105c357600080fd5b508035906020013573ffffffffffffffffffffffffffffffffffffffff16610e98565b610285600480360360408110156105fc57600080fd5b5073ffffffffffffffffffffffffffffffffffffffff81358116916020013516610f0b565b610285610f43565b609a8054604080516020601f60027fffffffffffffffffffffffffffffffffffffffffffffffffffffffffffffffff6101006001881615020190951694909404938401819004810282018101909252828152606093909290918301828280156106d35780601f106106a8576101008083540402835291602001916106d3565b820191906000526020600020905b8154815290600101906020018083116106b657829003601f168201915b5050505050905090565b60006106f16106ea610f67565b8484610f6b565b5060015b92915050565b60995490565b600061070e8484846110b2565b6107988461071a610f67565b61079385604051806060016040528060288152602001611fce6028913973ffffffffffffffffffffffffffffffffffffffff8a16600090815260986020526040812090610765610f67565b73ffffffffffffffffffffffffffffffffffffffff1681526020810191909152604001600020549190611284565b610f6b565b5060019392505050565b60009081526065602052604090206002015490565b6000828152606560205260409020600201546107da906107d5610f67565b610d38565b61082f576040517f08c379a000000000000000000000000000000000000000000000000000000000815260040180806020018281038252602f815260200180611ece602f913960400191505060405180910390fd5b6108398282611335565b5050565b609c5460ff1690565b61084e610f67565b73ffffffffffffffffffffffffffffffffffffffff168173ffffffffffffffffffffffffffffffffffffffff16146108d1576040517f08c379a000000000000000000000000000000000000000000000000000000000815260040180806020018281038252602f81526020018061208d602f913960400191505060405180910390fd5b61083982826113b8565b60006106f16108e8610f67565b8461079385609860006108f9610f67565b73ffffffffffffffffffffffffffffffffffffffff908116825260208083019390935260409182016000908120918c16815292529020549061143b565b6109627f65d7a28e3265b37a6474929f336521b332c1681b933f6cb9f3376673440d862a6107d5610f67565b6109b7576040517f08c379a000000000000000000000000000000000000000000000000000000000815260040180806020018281038252602f815260200180611e9f602f913960400191505060405180910390fd5b6109bf6114af565b565b6109ed7f9f2df0fed2c77648de5860a4cc508cd0818c85b8b8a1ab4ceeef8d981c8956a66107d5610f67565b610a42576040517f08c379a000000000000000000000000000000000000000000000000000000000815260040180806020018281038252602981526020018061201b6029913960400191505060405180910390fd5b610839828261159b565b600054610100900460ff1680610a655750610a656116ce565b80610a73575060005460ff16155b610ac8576040517f08c379a000000000000000000000000000000000000000000000000000000000815260040180806020018281038252602e815260200180611fa0602e913960400191505060405180910390fd5b600054610100900460ff16158015610b2e57600080547fffffffffffffffffffffffffffffffffffffffffffffffffffffffffffffff007fffffffffffffffffffffffffffffffffffffffffffffffffffffffffffff00ff909116610100171660011790555b610ba26040518060400160405280600a81526020017f466c6f61742042616e6b000000000000000000000000000000000000000000008152506040518060400160405280600481526020017f42414e4b000000000000000000000000000000000000000000000000000000008152506116d4565b610bad60008461082f565b610bd77f9f2df0fed2c77648de5860a4cc508cd0818c85b8b8a1ab4ceeef8d981c8956a68461082f565b610c017f9f2df0fed2c77648de5860a4cc508cd0818c85b8b8a1ab4ceeef8d981c8956a68361082f565b610c2b7f65d7a28e3265b37a6474929f336521b332c1681b933f6cb9f3376673440d862a8461082f565b8015610c5a57600080547fffffffffffffffffffffffffffffffffffffffffffffffffffffffffffff00ff1690555b505050565b60335460ff1690565b73ffffffffffffffffffffffffffffffffffffffff1660009081526097602052604090205490565b610cbc7f65d7a28e3265b37a6474929f336521b332c1681b933f6cb9f3376673440d862a6107d5610f67565b610d11576040517f08c379a000000000000000000000000000000000000000000000000000000000815260040180806020018281038252602b815260200180611f75602b913960400191505060405180910390fd5b6109bf6117c8565b6000828152606560205260408120610d31908361188e565b9392505050565b6000828152606560205260408120610d31908361189a565b609b8054604080516020601f60027fffffffffffffffffffffffffffffffffffffffffffffffffffffffffffffffff6101006001881615020190951694909404938401819004810282018101909252828152606093909290918301828280156106d35780601f106106a8576101008083540402835291602001916106d3565b600081565b60006106f1610de1610f67565b84610793856040518060600160405280602581526020016120686025913960986000610e0b610f67565b73ffffffffffffffffffffffffffffffffffffffff908116825260208083019390935260409182016000908120918d16815292529020549190611284565b60006106f1610e56610f67565b84846110b2565b60008181526065602052604081206106f5906118bc565b7f9f2df0fed2c77648de5860a4cc508cd0818c85b8b8a1ab4ceeef8d981c8956a681565b600082815260656020526040902060020154610eb6906107d5610f67565b6108d1576040517f08c379a0000000000000000000000000000000000000000000000000000000008152600401808060200182810382526030815260200180611f456030913960400191505060405180910390fd5b73ffffffffffffffffffffffffffffffffffffffff918216600090815260986020908152604080832093909416825291909152205490565b7f65d7a28e3265b37a6474929f336521b332c1681b933f6cb9f3376673440d862a81565b3390565b73ffffffffffffffffffffffffffffffffffffffff8316610fd7576040517f08c379a00000000000000000000000000000000000000000000000000000000081526004018080602001828103825260248152602001806120446024913960400191505060405180910390fd5b73ffffffffffffffffffffffffffffffffffffffff8216611043576040517f08c379a0000000000000000000000000000000000000000000000000000000008152600401808060200182810382526022815260200180611efd6022913960400191505060405180910390fd5b73ffffffffffffffffffffffffffffffffffffffff808416600081815260986020908152604080832094871680845294825291829020859055815185815291517f8c5be1e5ebec7d5bd14f71427d1e84f3dd0314c0f7b2291e5b200ac8c7c3b9259281900390910190a3505050565b73ffffffffffffffffffffffffffffffffffffffff831661111e576040517f08c379a0000000000000000000000000000000000000000000000000000000008152600401808060200182810382526025815260200180611ff66025913960400191505060405180910390fd5b73ffffffffffffffffffffffffffffffffffffffff821661118a576040517f08c379a0000000000000000000000000000000000000000000000000000000008152600401808060200182810382526023815260200180611e7c6023913960400191505060405180910390fd5b6111958383836118c7565b6111df81604051806060016040528060268152602001611f1f6026913973ffffffffffffffffffffffffffffffffffffffff86166000908152609760205260409020549190611284565b73ffffffffffffffffffffffffffffffffffffffff808516600090815260976020526040808220939093559084168152205461121b908261143b565b73ffffffffffffffffffffffffffffffffffffffff80841660008181526097602090815260409182902094909455805185815290519193928716927fddf252ad1be2c89b69c2b068fc378daa952ba7f163c4a11628f55a4df523b3ef92918290030190a3505050565b6000818484111561132d576040517f08c379a00000000000000000000000000000000000000000000000000000000081526004018080602001828103825283818151815260200191508051906020019080838360005b838110156112f25781810151838201526020016112da565b50505050905090810190601f16801561131f5780820380516001836020036101000a031916815260200191505b509250505060405180910390fd5b505050900390565b600082815260656020526040902061134d9082611930565b156108395761135a610f67565b73ffffffffffffffffffffffffffffffffffffffff168173ffffffffffffffffffffffffffffffffffffffff16837f2f8788117e7eff1d82e926ec794901d17c78024a50270940304540a733656f0d60405160405180910390a45050565b60008281526065602052604090206113d09082611952565b15610839576113dd610f67565b73ffffffffffffffffffffffffffffffffffffffff168173ffffffffffffffffffffffffffffffffffffffff16837ff6391f5c32d9c69d2a47ea670b442974b53935d1edc7fd64eb21e047a839171b60405160405180910390a45050565b600082820183811015610d3157604080517f08c379a000000000000000000000000000000000000000000000000000000000815260206004820152601b60248201527f536166654d6174683a206164646974696f6e206f766572666c6f770000000000604482015290519081900360640190fd5b60335460ff1661152057604080517f08c379a000000000000000000000000000000000000000000000000000000000815260206004820152601460248201527f5061757361626c653a206e6f7420706175736564000000000000000000000000604482015290519081900360640190fd5b603380547fffffffffffffffffffffffffffffffffffffffffffffffffffffffffffffff001690557f5db9ee0a495bf2e6ff9c91a7834c1ba4fdd244a5e8aa4e537bd38aeae4b073aa611571610f67565b6040805173ffffffffffffffffffffffffffffffffffffffff9092168252519081900360200190a1565b73ffffffffffffffffffffffffffffffffffffffff821661161d57604080517f08c379a000000000000000000000000000000000000000000000000000000000815260206004820152601f60248201527f45524332303a206d696e7420746f20746865207a65726f206164647265737300604482015290519081900360640190fd5b611629600083836118c7565b609954611636908261143b565b60995573ffffffffffffffffffffffffffffffffffffffff8216600090815260976020526040902054611669908261143b565b73ffffffffffffffffffffffffffffffffffffffff831660008181526097602090815260408083209490945583518581529351929391927fddf252ad1be2c89b69c2b068fc378daa952ba7f163c4a11628f55a4df523b3ef9281900390910190a35050565b303b1590565b600054610100900460ff16806116ed57506116ed6116ce565b806116fb575060005460ff16155b611750576040517f08c379a000000000000000000000000000000000000000000000000000000000815260040180806020018281038252602e815260200180611fa0602e913960400191505060405180910390fd5b600054610100900460ff161580156117b657600080547fffffffffffffffffffffffffffffffffffffffffffffffffffffffffffffff007fffffffffffffffffffffffffffffffffffffffffffffffffffffffffffff00ff909116610100171660011790555b6117be611974565b610c2b8383611a88565b60335460ff161561183a57604080517f08c379a000000000000000000000000000000000000000000000000000000000815260206004820152601060248201527f5061757361626c653a2070617573656400000000000000000000000000000000604482015290519081900360640190fd5b603380547fffffffffffffffffffffffffffffffffffffffffffffffffffffffffffffff001660011790557f62e78cea01bee320cd4e420270b5ea74000d11b0c9f74754ebdbfc544b05a258611571610f67565b6000610d318383611bf0565b6000610d318373ffffffffffffffffffffffffffffffffffffffff8416611c6e565b60006106f582611c86565b6118d2838383610c5a565b6118da610c5f565b15610c5a576040517f08c379a000000000000000000000000000000000000000000000000000000000815260040180806020018281038252602a8152602001806120bc602a913960400191505060405180910390fd5b6000610d318373ffffffffffffffffffffffffffffffffffffffff8416611c8a565b6000610d318373ffffffffffffffffffffffffffffffffffffffff8416611cd4565b600054610100900460ff168061198d575061198d6116ce565b8061199b575060005460ff16155b6119f0576040517f08c379a000000000000000000000000000000000000000000000000000000000815260040180806020018281038252602e815260200180611fa0602e913960400191505060405180910390fd5b600054610100900460ff16158015611a5657600080547fffffffffffffffffffffffffffffffffffffffffffffffffffffffffffffff007fffffffffffffffffffffffffffffffffffffffffffffffffffffffffffff00ff909116610100171660011790555b8015611a8557600080547fffffffffffffffffffffffffffffffffffffffffffffffffffffffffffff00ff1690555b50565b600054610100900460ff1680611aa15750611aa16116ce565b80611aaf575060005460ff16155b611b04576040517f08c379a000000000000000000000000000000000000000000000000000000000815260040180806020018281038252602e815260200180611fa0602e913960400191505060405180910390fd5b600054610100900460ff16158015611b6a57600080547fffffffffffffffffffffffffffffffffffffffffffffffffffffffffffffff007fffffffffffffffffffffffffffffffffffffffffffffffffffffffffffff00ff909116610100171660011790555b8251611b7d90609a906020860190611db8565b508151611b9190609b906020850190611db8565b50609c80547fffffffffffffffffffffffffffffffffffffffffffffffffffffffffffffff001660121790558015610c5a57600080547fffffffffffffffffffffffffffffffffffffffffffffffffffffffffffff00ff169055505050565b81546000908210611c4c576040517f08c379a0000000000000000000000000000000000000000000000000000000008152600401808060200182810382526022815260200180611e5a6022913960400191505060405180910390fd5b826000018281548110611c5b57fe5b9060005260206000200154905092915050565b60009081526001919091016020526040902054151590565b5490565b6000611c968383611c6e565b611ccc575081546001818101845560008481526020808220909301849055845484825282860190935260409020919091556106f5565b5060006106f5565b60008181526001830160205260408120548015611dae5783547fffffffffffffffffffffffffffffffffffffffffffffffffffffffffffffffff8083019190810190600090879083908110611d2557fe5b9060005260206000200154905080876000018481548110611d4257fe5b600091825260208083209091019290925582815260018981019092526040902090840190558654879080611d7257fe5b600190038181906000526020600020016000905590558660010160008781526020019081526020016000206000905560019450505050506106f5565b60009150506106f5565b828054600181600116156101000203166002900490600052602060002090601f016020900481019282611dee5760008555611e34565b82601f10611e0757805160ff1916838001178555611e34565b82800160010185558215611e34579182015b82811115611e34578251825591602001919060010190611e19565b50611e40929150611e44565b5090565b5b80821115611e405760008155600101611e4556fe456e756d657261626c655365743a20696e646578206f7574206f6620626f756e647345524332303a207472616e7366657220746f20746865207a65726f206164647265737342616e6b3a3a756e70617573653a206d75737420686176652070617573657220726f6c6520746f20756e7061757365416363657373436f6e74726f6c3a2073656e646572206d75737420626520616e2061646d696e20746f206772616e7445524332303a20617070726f766520746f20746865207a65726f206164647265737345524332303a207472616e7366657220616d6f756e7420657863656564732062616c616e6365416363657373436f6e74726f6c3a2073656e646572206d75737420626520616e2061646d696e20746f207265766f6b6542616e6b3a3a70617573653a206d75737420686176652070617573657220726f6c6520746f207061757365496e697469616c697a61626c653a20636f6e747261637420697320616c726561647920696e697469616c697a656445524332303a207472616e7366657220616d6f756e74206578636565647320616c6c6f77616e636545524332303a207472616e736665722066726f6d20746865207a65726f206164647265737342616e6b3a3a6d696e743a206d7573742068617665206d696e74657220726f6c6520746f206d696e7445524332303a20617070726f76652066726f6d20746865207a65726f206164647265737345524332303a2064656372656173656420616c6c6f77616e63652062656c6f77207a65726f416363657373436f6e74726f6c3a2063616e206f6e6c792072656e6f756e636520726f6c657320666f722073656c6645524332305061757361626c653a20746f6b656e207472616e73666572207768696c6520706175736564a264697066735822122034fbc0f26b060c5cf502d04d41bc9f861a6d3220a9e1b1665ce0b9e99b887a6d64736f6c63430007040033"
}