{
  "address": "0x78946DF7A8E6419F0bd86934CDF2F59ce1656059",
  "abi": [
    {
      "inputs": [
        {
          "internalType": "address",
          "name": "timelock_",
          "type": "address"
        },
        {
          "internalType": "address[]",
          "name": "pools_",
          "type": "address[]"
        }
      ],
      "stateMutability": "nonpayable",
      "type": "constructor"
    },
    {
      "inputs": [
        {
          "internalType": "address",
          "name": "pool",
          "type": "address"
        }
      ],
      "name": "addPool",
      "outputs": [],
      "stateMutability": "nonpayable",
      "type": "function"
    },
    {
      "inputs": [
        {
          "internalType": "address",
          "name": "account",
          "type": "address"
        }
      ],
      "name": "getCurrentEarned",
      "outputs": [
        {
          "internalType": "uint256",
          "name": "",
          "type": "uint256"
        }
      ],
      "stateMutability": "view",
      "type": "function"
    },
    {
      "inputs": [],
      "name": "getPools",
      "outputs": [
        {
          "internalType": "address[]",
          "name": "",
          "type": "address[]"
        }
      ],
      "stateMutability": "view",
      "type": "function"
    },
    {
      "inputs": [
        {
          "internalType": "uint256",
          "name": "",
          "type": "uint256"
        }
      ],
      "name": "pools",
      "outputs": [
        {
          "internalType": "address",
          "name": "",
          "type": "address"
        }
      ],
      "stateMutability": "view",
      "type": "function"
    },
    {
      "inputs": [
        {
          "internalType": "uint256",
          "name": "index",
          "type": "uint256"
        }
      ],
      "name": "removePool",
      "outputs": [],
      "stateMutability": "nonpayable",
      "type": "function"
    },
    {
      "inputs": [],
      "name": "timelock",
      "outputs": [
        {
          "internalType": "address",
          "name": "",
          "type": "address"
        }
      ],
      "stateMutability": "view",
      "type": "function"
    }
  ],
  "transactionHash": "0x71946a73b69052ce9f7f33c016ecdcf34b110238e5997674e4b5910e5442bcc6",
  "args": [
    "0xdE4B9cBaD10cdFf96eE4b1f9C7568283e96C0089",
    [
      "0xF5ab36DEF38E2635342E93895fedbD93c8EBb715",
      "0x73139212D0F62c6ddB6514C6a55c3778EB798D72",
      "0x8F2528EE4878c70C82d15903aE9f042A09E9D8F7"
    ]
  ],
  "solcInputHash": "c3b52537b0400fc611f016dea3c80ada",
  "bytecode": "0x608060405234801561001057600080fd5b506040516109bf3803806109bf8339818101604052604081101561003357600080fd5b81516020830180516040519294929383019291908464010000000082111561005a57600080fd5b90830190602082018581111561006f57600080fd5b825186602082028301116401000000008211171561008c57600080fd5b82525081516020918201928201910280838360005b838110156100b95781810151838201526020016100a1565b50505050919091016040525050600080546001600160a01b0319166001600160a01b038616179055505080516100f69060019060208401906100fe565b505050610178565b828054828255906000526020600020908101928215610153579160200282015b8281111561015357825182546001600160a01b0319166001600160a01b0390911617825560209092019160019091019061011e565b5061015f929150610163565b5090565b5b8082111561015f5760008155600101610164565b610838806101876000396000f3fe608060405234801561001057600080fd5b50600436106100725760003560e01c8063ac4afa3811610050578063ac4afa3814610133578063d33219b414610179578063d914cd4b1461018157610072565b8063673a2a1f146100775780639f8f18ac146100cf578063a38dcbd014610114575b600080fd5b61007f6101b4565b60408051602080825283518183015283519192839290830191858101910280838360005b838110156100bb5781810151838201526020016100a3565b505050509050019250505060405180910390f35b610102600480360360208110156100e557600080fd5b503573ffffffffffffffffffffffffffffffffffffffff16610226565b60408051918252519081900360200190f35b6101316004803603602081101561012a57600080fd5b50356102ff565b005b6101506004803603602081101561014957600080fd5b50356104d1565b6040805173ffffffffffffffffffffffffffffffffffffffff9092168252519081900360200190f35b610150610508565b6101316004803603602081101561019757600080fd5b503573ffffffffffffffffffffffffffffffffffffffff16610524565b606080600180548060200260200160405190810160405280929190818152602001828054801561021a57602002820191906000526020600020905b815473ffffffffffffffffffffffffffffffffffffffff1681526001909101906020018083116101ef575b50939550505050505090565b600080805b6001548110156102f8576102ee826001838154811061024657fe5b60009182526020918290200154604080517e8cc26200000000000000000000000000000000000000000000000000000000815273ffffffffffffffffffffffffffffffffffffffff8a8116600483015291519190921692628cc2629260248082019391829003018186803b1580156102bd57600080fd5b505afa1580156102d1573d6000803e3d6000fd5b505050506040513d60208110156102e757600080fd5b5051610787565b915060010161022b565b5092915050565b60005473ffffffffffffffffffffffffffffffffffffffff16331461038557604080517f08c379a000000000000000000000000000000000000000000000000000000000815260206004820152601b60248201527f4561726e656441676772656761746f723a202174696d656c6f636b0000000000604482015290519081900360640190fd5b6001548110610393576104ce565b6001547fffffffffffffffffffffffffffffffffffffffffffffffffffffffffffffffff01811461046a57600180547fffffffffffffffffffffffffffffffffffffffffffffffffffffffffffffffff81019081106103ee57fe5b6000918252602090912001546001805473ffffffffffffffffffffffffffffffffffffffff909216918390811061042157fe5b9060005260206000200160006101000a81548173ffffffffffffffffffffffffffffffffffffffff021916908373ffffffffffffffffffffffffffffffffffffffff1602179055505b600180548061047557fe5b60008281526020902081017fffffffffffffffffffffffffffffffffffffffffffffffffffffffffffffffff90810180547fffffffffffffffffffffffff00000000000000000000000000000000000000001690550190555b50565b600181815481106104e157600080fd5b60009182526020909120015473ffffffffffffffffffffffffffffffffffffffff16905081565b60005473ffffffffffffffffffffffffffffffffffffffff1681565b600054604080517e8cc26200000000000000000000000000000000000000000000000000000000815273ffffffffffffffffffffffffffffffffffffffff9283166004820152905191831691628cc26291602480820192602092909190829003018186803b15801561059557600080fd5b505afa1580156105a9573d6000803e3d6000fd5b505050506040513d60208110156105bf57600080fd5b50600090505b60015481101561068a578173ffffffffffffffffffffffffffffffffffffffff16600182815481106105f357fe5b60009182526020909120015473ffffffffffffffffffffffffffffffffffffffff16141561068257604080517f08c379a000000000000000000000000000000000000000000000000000000000815260206004820152600d60248201527f616c726561647920616464656400000000000000000000000000000000000000604482015290519081900360640190fd5b6001016105c5565b5060005473ffffffffffffffffffffffffffffffffffffffff16331461071157604080517f08c379a000000000000000000000000000000000000000000000000000000000815260206004820152601b60248201527f4561726e656441676772656761746f723a202174696d656c6f636b0000000000604482015290519081900360640190fd5b6001805480820182556000919091527fb10e2d527612073b26eecdfd717e6a320cf44b4afac2b0732d9fcbe2b7fa0cf60180547fffffffffffffffffffffffff00000000000000000000000000000000000000001673ffffffffffffffffffffffffffffffffffffffff92909216919091179055565b6000828201838110156107fb57604080517f08c379a000000000000000000000000000000000000000000000000000000000815260206004820152601b60248201527f536166654d6174683a206164646974696f6e206f766572666c6f770000000000604482015290519081900360640190fd5b939250505056fea2646970667358221220eabee76fcb0ebcb298b729c8ad93f13208eb446b284e27e9193ae70ccff78d9364736f6c63430007040033",
  "devdoc": {
    "kind": "dev",
    "methods": {},
    "version": 1
  },
  "userdoc": {
    "kind": "user",
    "methods": {
      "pools(uint256)": {
        "notice": "addresses of pools (Staking Rewards Contracts)"
      },
      "timelock()": {
        "notice": "The address of the Float Protocol Timelock"
      }
    },
    "version": 1
  },
  "storageLayout": {
    "storage": [
      {
        "astId": 3266,
        "contract": "contracts/auxillary/EarnedAggregator.sol:EarnedAggregator",
        "label": "timelock",
        "offset": 0,
        "slot": "0",
        "type": "t_address"
      },
      {
        "astId": 3270,
        "contract": "contracts/auxillary/EarnedAggregator.sol:EarnedAggregator",
        "label": "pools",
        "offset": 0,
        "slot": "1",
        "type": "t_array(t_address)dyn_storage"
      }
    ],
    "types": {
      "t_address": {
        "encoding": "inplace",
        "label": "address",
        "numberOfBytes": "20"
      },
      "t_array(t_address)dyn_storage": {
        "base": "t_address",
        "encoding": "dynamic_array",
        "label": "address[]",
        "numberOfBytes": "32"
      }
    }
  }
}