{
  "address": "0xdE4B9cBaD10cdFf96eE4b1f9C7568283e96C0089",
  "abi": [
    {
      "inputs": [
        {
          "internalType": "address",
          "name": "admin_",
          "type": "address"
        },
        {
          "internalType": "uint256",
          "name": "delay_",
          "type": "uint256"
        }
      ],
      "stateMutability": "nonpayable",
      "type": "constructor"
    },
    {
      "anonymous": false,
      "inputs": [
        {
          "indexed": true,
          "internalType": "bytes32",
          "name": "txHash",
          "type": "bytes32"
        },
        {
          "indexed": true,
          "internalType": "address",
          "name": "target",
          "type": "address"
        },
        {
          "indexed": false,
          "internalType": "uint256",
          "name": "value",
          "type": "uint256"
        },
        {
          "indexed": false,
          "internalType": "string",
          "name": "signature",
          "type": "string"
        },
        {
          "indexed": false,
          "internalType": "bytes",
          "name": "data",
          "type": "bytes"
        },
        {
          "indexed": false,
          "internalType": "uint256",
          "name": "eta",
          "type": "uint256"
        }
      ],
      "name": "CancelTransaction",
      "type": "event"
    },
    {
      "anonymous": false,
      "inputs": [
        {
          "indexed": true,
          "internalType": "bytes32",
          "name": "txHash",
          "type": "bytes32"
        },
        {
          "indexed": true,
          "internalType": "address",
          "name": "target",
          "type": "address"
        },
        {
          "indexed": false,
          "internalType": "uint256",
          "name": "value",
          "type": "uint256"
        },
        {
          "indexed": false,
          "internalType": "string",
          "name": "signature",
          "type": "string"
        },
        {
          "indexed": false,
          "internalType": "bytes",
          "name": "data",
          "type": "bytes"
        },
        {
          "indexed": false,
          "internalType": "uint256",
          "name": "eta",
          "type": "uint256"
        }
      ],
      "name": "ExecuteTransaction",
      "type": "event"
    },
    {
      "anonymous": false,
      "inputs": [
        {
          "indexed": true,
          "internalType": "address",
          "name": "newAdmin",
          "type": "address"
        }
      ],
      "name": "NewAdmin",
      "type": "event"
    },
    {
      "anonymous": false,
      "inputs": [
        {
          "indexed": true,
          "internalType": "uint256",
          "name": "newDelay",
          "type": "uint256"
        }
      ],
      "name": "NewDelay",
      "type": "event"
    },
    {
      "anonymous": false,
      "inputs": [
        {
          "indexed": true,
          "internalType": "address",
          "name": "newPendingAdmin",
          "type": "address"
        }
      ],
      "name": "NewPendingAdmin",
      "type": "event"
    },
    {
      "anonymous": false,
      "inputs": [
        {
          "indexed": true,
          "internalType": "bytes32",
          "name": "txHash",
          "type": "bytes32"
        },
        {
          "indexed": true,
          "internalType": "address",
          "name": "target",
          "type": "address"
        },
        {
          "indexed": false,
          "internalType": "uint256",
          "name": "value",
          "type": "uint256"
        },
        {
          "indexed": false,
          "internalType": "string",
          "name": "signature",
          "type": "string"
        },
        {
          "indexed": false,
          "internalType": "bytes",
          "name": "data",
          "type": "bytes"
        },
        {
          "indexed": false,
          "internalType": "uint256",
          "name": "eta",
          "type": "uint256"
        }
      ],
      "name": "QueueTransaction",
      "type": "event"
    },
    {
      "stateMutability": "nonpayable",
      "type": "fallback"
    },
    {
      "inputs": [],
      "name": "GRACE_PERIOD",
      "outputs": [
        {
          "internalType": "uint256",
          "name": "",
          "type": "uint256"
        }
      ],
      "stateMutability": "view",
      "type": "function"
    },
    {
      "inputs": [],
      "name": "MAXIMUM_DELAY",
      "outputs": [
        {
          "internalType": "uint256",
          "name": "",
          "type": "uint256"
        }
      ],
      "stateMutability": "view",
      "type": "function"
    },
    {
      "inputs": [],
      "name": "MINIMUM_DELAY",
      "outputs": [
        {
          "internalType": "uint256",
          "name": "",
          "type": "uint256"
        }
      ],
      "stateMutability": "view",
      "type": "function"
    },
    {
      "inputs": [],
      "name": "acceptAdmin",
      "outputs": [],
      "stateMutability": "nonpayable",
      "type": "function"
    },
    {
      "inputs": [],
      "name": "admin",
      "outputs": [
        {
          "internalType": "address",
          "name": "",
          "type": "address"
        }
      ],
      "stateMutability": "view",
      "type": "function"
    },
    {
      "inputs": [
        {
          "internalType": "address",
          "name": "target",
          "type": "address"
        },
        {
          "internalType": "uint256",
          "name": "value",
          "type": "uint256"
        },
        {
          "internalType": "string",
          "name": "signature",
          "type": "string"
        },
        {
          "internalType": "bytes",
          "name": "data",
          "type": "bytes"
        },
        {
          "internalType": "uint256",
          "name": "eta",
          "type": "uint256"
        }
      ],
      "name": "cancelTransaction",
      "outputs": [],
      "stateMutability": "nonpayable",
      "type": "function"
    },
    {
      "inputs": [],
      "name": "delay",
      "outputs": [
        {
          "internalType": "uint256",
          "name": "",
          "type": "uint256"
        }
      ],
      "stateMutability": "view",
      "type": "function"
    },
    {
      "inputs": [
        {
          "internalType": "address",
          "name": "target",
          "type": "address"
        },
        {
          "internalType": "uint256",
          "name": "value",
          "type": "uint256"
        },
        {
          "internalType": "string",
          "name": "signature",
          "type": "string"
        },
        {
          "internalType": "bytes",
          "name": "data",
          "type": "bytes"
        },
        {
          "internalType": "uint256",
          "name": "eta",
          "type": "uint256"
        }
      ],
      "name": "executeTransaction",
      "outputs": [
        {
          "internalType": "bytes",
          "name": "",
          "type": "bytes"
        }
      ],
      "stateMutability": "payable",
      "type": "function"
    },
    {
      "inputs": [],
      "name": "pendingAdmin",
      "outputs": [
        {
          "internalType": "address",
          "name": "",
          "type": "address"
        }
      ],
      "stateMutability": "view",
      "type": "function"
    },
    {
      "inputs": [
        {
          "internalType": "address",
          "name": "target",
          "type": "address"
        },
        {
          "internalType": "uint256",
          "name": "value",
          "type": "uint256"
        },
        {
          "internalType": "string",
          "name": "signature",
          "type": "string"
        },
        {
          "internalType": "bytes",
          "name": "data",
          "type": "bytes"
        },
        {
          "internalType": "uint256",
          "name": "eta",
          "type": "uint256"
        }
      ],
      "name": "queueTransaction",
      "outputs": [
        {
          "internalType": "bytes32",
          "name": "",
          "type": "bytes32"
        }
      ],
      "stateMutability": "nonpayable",
      "type": "function"
    },
    {
      "inputs": [
        {
          "internalType": "bytes32",
          "name": "",
          "type": "bytes32"
        }
      ],
      "name": "queuedTransactions",
      "outputs": [
        {
          "internalType": "bool",
          "name": "",
          "type": "bool"
        }
      ],
      "stateMutability": "view",
      "type": "function"
    },
    {
      "inputs": [
        {
          "internalType": "uint256",
          "name": "delay_",
          "type": "uint256"
        }
      ],
      "name": "setDelay",
      "outputs": [],
      "stateMutability": "nonpayable",
      "type": "function"
    },
    {
      "inputs": [
        {
          "internalType": "address",
          "name": "pendingAdmin_",
          "type": "address"
        }
      ],
      "name": "setPendingAdmin",
      "outputs": [],
      "stateMutability": "nonpayable",
      "type": "function"
    }
  ],
  "transactionHash": "0x0a5a193368237d4c786f8ff60f97ef151478474322f5b565f6bc413e698c9922",
  "args": [
    "0x383dF49ad1f0219759a46399fE33Cb7A63cd051c",
    172800
  ],
  "solcInputHash": "616d2256abf661836a9c9e5784b4a1dc",
  "bytecode": "0x608060405234801561001057600080fd5b50604051611bd1380380611bd18339818101604052604081101561003357600080fd5b5080516020909101516202a30081101561007e5760405162461bcd60e51b8152600401808060200182810382526037815260200180611b9a6037913960400191505060405180910390fd5b62278d008111156100c05760405162461bcd60e51b815260040180806020018281038252603b815260200180611b5f603b913960400191505060405180910390fd5b600080546001600160a01b039093166001600160a01b031990931692909217909155600255611a6b806100f46000396000f3fe6080604052600436106100d25760003560e01c80636a42b8f81161007f578063c1a287e211610059578063c1a287e214610649578063e177246e1461065e578063f2b0653714610688578063f851a440146106c6576100d2565b80636a42b8f81461060a5780637d645fab1461061f578063b1b43ae514610634576100d2565b80633a66f901116100b05780633a66f901146102fc5780634dd18bf51461046c578063591fcdfe146104ac576100d2565b80630825f38f146100e15780630e18b681146102a757806326782247146102be575b3480156100de57600080fd5b50005b610232600480360360a08110156100f757600080fd5b73ffffffffffffffffffffffffffffffffffffffff8235169160208101359181019060608101604082013564010000000081111561013457600080fd5b82018360208201111561014657600080fd5b8035906020019184600183028401116401000000008311171561016857600080fd5b91908080601f01602080910402602001604051908101604052809392919081815260200183838082843760009201919091525092959493602081019350359150506401000000008111156101bb57600080fd5b8201836020820111156101cd57600080fd5b803590602001918460018302840111640100000000831117156101ef57600080fd5b91908080601f01602080910402602001604051908101604052809392919081815260200183838082843760009201919091525092955050913592506106db915050565b6040805160208082528351818301528351919283929083019185019080838360005b8381101561026c578181015183820152602001610254565b50505050905090810190601f1680156102995780820380516001836020036101000a031916815260200191505b509250505060405180910390f35b3480156102b357600080fd5b506102bc610d1e565b005b3480156102ca57600080fd5b506102d3610e06565b6040805173ffffffffffffffffffffffffffffffffffffffff9092168252519081900360200190f35b34801561030857600080fd5b5061045a600480360360a081101561031f57600080fd5b73ffffffffffffffffffffffffffffffffffffffff8235169160208101359181019060608101604082013564010000000081111561035c57600080fd5b82018360208201111561036e57600080fd5b8035906020019184600183028401116401000000008311171561039057600080fd5b91908080601f01602080910402602001604051908101604052809392919081815260200183838082843760009201919091525092959493602081019350359150506401000000008111156103e357600080fd5b8201836020820111156103f557600080fd5b8035906020019184600183028401116401000000008311171561041757600080fd5b91908080601f0160208091040260200160405190810160405280939291908181526020018383808284376000920191909152509295505091359250610e22915050565b60408051918252519081900360200190f35b34801561047857600080fd5b506102bc6004803603602081101561048f57600080fd5b503573ffffffffffffffffffffffffffffffffffffffff1661117f565b3480156104b857600080fd5b506102bc600480360360a08110156104cf57600080fd5b73ffffffffffffffffffffffffffffffffffffffff8235169160208101359181019060608101604082013564010000000081111561050c57600080fd5b82018360208201111561051e57600080fd5b8035906020019184600183028401116401000000008311171561054057600080fd5b91908080601f016020809104026020016040519081016040528093929190818152602001838380828437600092019190915250929594936020810193503591505064010000000081111561059357600080fd5b8201836020820111156105a557600080fd5b803590602001918460018302840111640100000000831117156105c757600080fd5b91908080601f016020809104026020016040519081016040528093929190818152602001838380828437600092019190915250929550509135925061124c915050565b34801561061657600080fd5b5061045a61153a565b34801561062b57600080fd5b5061045a611540565b34801561064057600080fd5b5061045a611547565b34801561065557600080fd5b5061045a61154e565b34801561066a57600080fd5b506102bc6004803603602081101561068157600080fd5b5035611555565b34801561069457600080fd5b506106b2600480360360208110156106ab57600080fd5b5035611698565b604080519115158252519081900360200190f35b3480156106d257600080fd5b506102d36116ad565b60005460609073ffffffffffffffffffffffffffffffffffffffff16331461074e576040517f08c379a00000000000000000000000000000000000000000000000000000000081526004018080602001828103825260388152602001806119c66038913960400191505060405180910390fd5b60008686868686604051602001808673ffffffffffffffffffffffffffffffffffffffff1681526020018581526020018060200180602001848152602001838103835286818151815260200191508051906020019080838360005b838110156107c15781810151838201526020016107a9565b50505050905090810190601f1680156107ee5780820380516001836020036101000a031916815260200191505b50838103825285518152855160209182019187019080838360005b83811015610821578181015183820152602001610809565b50505050905090810190601f16801561084e5780820380516001836020036101000a031916815260200191505b50604080517fffffffffffffffffffffffffffffffffffffffffffffffffffffffffffffffe081840301815291815281516020928301206000818152600390935291205490995060ff1697506108f79650505050505050576040517f08c379a000000000000000000000000000000000000000000000000000000000815260040180806020018281038252603d8152602001806117b7603d913960400191505060405180910390fd5b826109006116c9565b1015610957576040517f08c379a00000000000000000000000000000000000000000000000000000000081526004018080602001828103825260458152602001806119816045913960600191505060405180910390fd5b61096483621275006116cd565b61096c6116c9565b11156109c3576040517f08c379a00000000000000000000000000000000000000000000000000000000081526004018080602001828103825260338152602001806118de6033913960400191505060405180910390fd5b600081815260036020526040902080547fffffffffffffffffffffffffffffffffffffffffffffffffffffffffffffff001690558451606090610a07575083610abd565b85805190602001208560405160200180837bffffffffffffffffffffffffffffffffffffffffffffffffffffffff1916815260040182805190602001908083835b60208310610a8557805182527fffffffffffffffffffffffffffffffffffffffffffffffffffffffffffffffe09092019160209182019101610a48565b6001836020036101000a0380198251168184511680821785525050505050509050019250505060405160208183030381529060405290505b600060608973ffffffffffffffffffffffffffffffffffffffff1689846040518082805190602001908083835b60208310610b2757805182527fffffffffffffffffffffffffffffffffffffffffffffffffffffffffffffffe09092019160209182019101610aea565b6001836020036101000a03801982511681845116808217855250505050505090500191505060006040518083038185875af1925050503d8060008114610b89576040519150601f19603f3d011682016040523d82523d6000602084013e610b8e565b606091505b509150915081610be9576040517f08c379a000000000000000000000000000000000000000000000000000000000815260040180806020018281038252603d81526020018061177a603d913960400191505060405180910390fd5b8973ffffffffffffffffffffffffffffffffffffffff16847fa560e3198060a2f10670c1ec5b403077ea6ae93ca8de1c32b451dc1a943cd6e78b8b8b8b604051808581526020018060200180602001848152602001838103835286818151815260200191508051906020019080838360005b83811015610c73578181015183820152602001610c5b565b50505050905090810190601f168015610ca05780820380516001836020036101000a031916815260200191505b50838103825285518152855160209182019187019080838360005b83811015610cd3578181015183820152602001610cbb565b50505050905090810190601f168015610d005780820380516001836020036101000a031916815260200191505b50965050505050505060405180910390a39998505050505050505050565b60015473ffffffffffffffffffffffffffffffffffffffff163314610d8e576040517f08c379a00000000000000000000000000000000000000000000000000000000081526004018080602001828103825260388152602001806119496038913960400191505060405180910390fd5b60008054337fffffffffffffffffffffffff0000000000000000000000000000000000000000918216178083556001805490921690915560405173ffffffffffffffffffffffffffffffffffffffff909116917f71614071b88dee5e0b2ae578a9dd7b2ebbe9ae832ba419dc0242cd065a290b6c91a2565b60015473ffffffffffffffffffffffffffffffffffffffff1681565b6000805473ffffffffffffffffffffffffffffffffffffffff163314610e93576040517f08c379a00000000000000000000000000000000000000000000000000000000081526004018080602001828103825260368152602001806117f46036913960400191505060405180910390fd5b610ea7600254610ea16116c9565b906116cd565b821015610eff576040517f08c379a00000000000000000000000000000000000000000000000000000000081526004018080602001828103825260498152602001806118616049913960600191505060405180910390fd5b60008686868686604051602001808673ffffffffffffffffffffffffffffffffffffffff1681526020018581526020018060200180602001848152602001838103835286818151815260200191508051906020019080838360005b83811015610f72578181015183820152602001610f5a565b50505050905090810190601f168015610f9f5780820380516001836020036101000a031916815260200191505b50838103825285518152855160209182019187019080838360005b83811015610fd2578181015183820152602001610fba565b50505050905090810190601f168015610fff5780820380516001836020036101000a031916815260200191505b5097505050505050505060405160208183030381529060405280519060200120905060016003600083815260200190815260200160002060006101000a81548160ff0219169083151502179055508673ffffffffffffffffffffffffffffffffffffffff16817f76e2796dc3a81d57b0e8504b647febcbeeb5f4af818e164f11eef8131a6a763f88888888604051808581526020018060200180602001848152602001838103835286818151815260200191508051906020019080838360005b838110156110d75781810151838201526020016110bf565b50505050905090810190601f1680156111045780820380516001836020036101000a031916815260200191505b50838103825285518152855160209182019187019080838360005b8381101561113757818101518382015260200161111f565b50505050905090810190601f1680156111645780820380516001836020036101000a031916815260200191505b50965050505050505060405180910390a39695505050505050565b3330146111d7576040517f08c379a00000000000000000000000000000000000000000000000000000000081526004018080602001828103825260388152602001806119116038913960400191505060405180910390fd5b600180547fffffffffffffffffffffffff00000000000000000000000000000000000000001673ffffffffffffffffffffffffffffffffffffffff83811691909117918290556040519116907f69d78e38a01985fbb1462961809b4b2d65531bc93b2b94037f3334b82ca4a75690600090a250565b60005473ffffffffffffffffffffffffffffffffffffffff1633146112bc576040517f08c379a000000000000000000000000000000000000000000000000000000000815260040180806020018281038252603781526020018061182a6037913960400191505060405180910390fd5b60008585858585604051602001808673ffffffffffffffffffffffffffffffffffffffff1681526020018581526020018060200180602001848152602001838103835286818151815260200191508051906020019080838360005b8381101561132f578181015183820152602001611317565b50505050905090810190601f16801561135c5780820380516001836020036101000a031916815260200191505b50838103825285518152855160209182019187019080838360005b8381101561138f578181015183820152602001611377565b50505050905090810190601f1680156113bc5780820380516001836020036101000a031916815260200191505b5097505050505050505060405160208183030381529060405280519060200120905060006003600083815260200190815260200160002060006101000a81548160ff0219169083151502179055508573ffffffffffffffffffffffffffffffffffffffff16817f2fffc091a501fd91bfbff27141450d3acb40fb8e6d8382b243ec7a812a3aaf8787878787604051808581526020018060200180602001848152602001838103835286818151815260200191508051906020019080838360005b8381101561149457818101518382015260200161147c565b50505050905090810190601f1680156114c15780820380516001836020036101000a031916815260200191505b50838103825285518152855160209182019187019080838360005b838110156114f45781810151838201526020016114dc565b50505050905090810190601f1680156115215780820380516001836020036101000a031916815260200191505b50965050505050505060405180910390a3505050505050565b60025481565b62278d0081565b6202a30081565b6212750081565b3330146115ad576040517f08c379a00000000000000000000000000000000000000000000000000000000081526004018080602001828103825260318152602001806117496031913960400191505060405180910390fd5b6202a300811015611609576040517f08c379a00000000000000000000000000000000000000000000000000000000081526004018080602001828103825260348152602001806118aa6034913960400191505060405180910390fd5b62278d00811115611665576040517f08c379a00000000000000000000000000000000000000000000000000000000081526004018080602001828103825260388152602001806119fe6038913960400191505060405180910390fd5b600281905560405181907f948b1f6a42ee138b7e34058ba85a37f716d55ff25ff05a763f15bed6a04c8d2c90600090a250565b60036020526000908152604090205460ff1681565b60005473ffffffffffffffffffffffffffffffffffffffff1681565b4290565b60008282018381101561174157604080517f08c379a000000000000000000000000000000000000000000000000000000000815260206004820152601b60248201527f536166654d6174683a206164646974696f6e206f766572666c6f770000000000604482015290519081900360640190fd5b939250505056fe54696d654c6f636b3a3a73657444656c61793a2043616c6c206d75737420636f6d652066726f6d2054696d654c6f636b2e54696d654c6f636b3a3a657865637574655472616e73616374696f6e3a205472616e73616374696f6e20657865637574696f6e2072657665727465642e54696d654c6f636b3a3a657865637574655472616e73616374696f6e3a205472616e73616374696f6e206861736e2774206265656e207175657565642e54696d654c6f636b3a3a71756575655472616e73616374696f6e3a2043616c6c206d75737420636f6d652066726f6d2061646d696e2e54696d654c6f636b3a3a63616e63656c5472616e73616374696f6e3a2043616c6c206d75737420636f6d652066726f6d2061646d696e2e54696d654c6f636b3a3a71756575655472616e73616374696f6e3a20457374696d6174656420657865637574696f6e20626c6f636b206d75737420736174697366792064656c61792e54696d654c6f636b3a3a73657444656c61793a2044656c6179206d75737420657863656564206d696e696d756d2064656c61792e54696d654c6f636b3a3a657865637574655472616e73616374696f6e3a205472616e73616374696f6e206973207374616c652e54696d654c6f636b3a3a73657450656e64696e6741646d696e3a2043616c6c206d75737420636f6d652066726f6d2054696d654c6f636b2e54696d654c6f636b3a3a61636365707441646d696e3a2043616c6c206d75737420636f6d652066726f6d2070656e64696e6741646d696e2e54696d654c6f636b3a3a657865637574655472616e73616374696f6e3a205472616e73616374696f6e206861736e2774207375727061737365642074696d65206c6f636b2e54696d654c6f636b3a3a657865637574655472616e73616374696f6e3a2043616c6c206d75737420636f6d652066726f6d2061646d696e2e54696d654c6f636b3a3a73657444656c61793a2044656c6179206d757374206e6f7420657863656564206d6178696d756d2064656c61792ea264697066735822122060511918f8d06c8f811f09c2a8738d1343c9780a96a56beda10192466cc11ab364736f6c6343000704003354696d654c6f636b3a3a636f6e7374727563746f723a2044656c6179206d757374206e6f7420657863656564206d6178696d756d2064656c61792e54696d654c6f636b3a3a636f6e7374727563746f723a2044656c6179206d75737420657863656564206d696e696d756d2064656c61792e",
  "devdoc": {
    "kind": "dev",
    "methods": {},
    "version": 1
  },
  "userdoc": {
    "kind": "user",
    "methods": {},
    "version": 1
  },
  "storageLayout": {
    "storage": [
      {
        "astId": 3374,
        "contract": "contracts/TimeLock.sol:TimeLock",
        "label": "admin",
        "offset": 0,
        "slot": "0",
        "type": "t_address"
      },
      {
        "astId": 3376,
        "contract": "contracts/TimeLock.sol:TimeLock",
        "label": "pendingAdmin",
        "offset": 0,
        "slot": "1",
        "type": "t_address"
      },
      {
        "astId": 3378,
        "contract": "contracts/TimeLock.sol:TimeLock",
        "label": "delay",
        "offset": 0,
        "slot": "2",
        "type": "t_uint256"
      },
      {
        "astId": 3382,
        "contract": "contracts/TimeLock.sol:TimeLock",
        "label": "queuedTransactions",
        "offset": 0,
        "slot": "3",
        "type": "t_mapping(t_bytes32,t_bool)"
      }
    ],
    "types": {
      "t_address": {
        "encoding": "inplace",
        "label": "address",
        "numberOfBytes": "20"
      },
      "t_bool": {
        "encoding": "inplace",
        "label": "bool",
        "numberOfBytes": "1"
      },
      "t_bytes32": {
        "encoding": "inplace",
        "label": "bytes32",
        "numberOfBytes": "32"
      },
      "t_mapping(t_bytes32,t_bool)": {
        "encoding": "mapping",
        "key": "t_bytes32",
        "label": "mapping(bytes32 => bool)",
        "numberOfBytes": "32",
        "value": "t_bool"
      },
      "t_uint256": {
        "encoding": "inplace",
        "label": "uint256",
        "numberOfBytes": "32"
      }
    }
  }
}