{
  "address": "0x73139212D0F62c6ddB6514C6a55c3778EB798D72",
  "abi": [
    {
      "inputs": [
        {
          "internalType": "address",
          "name": "_admin",
          "type": "address"
        },
        {
          "internalType": "address",
          "name": "_rewardDistribution",
          "type": "address"
        },
        {
          "internalType": "address",
          "name": "_whitelist",
          "type": "address"
        },
        {
          "internalType": "address",
          "name": "_rewardToken",
          "type": "address"
        },
        {
          "internalType": "address",
          "name": "_stakingToken",
          "type": "address"
        },
        {
          "internalType": "uint256",
          "name": "_maximumContribution",
          "type": "uint256"
        }
      ],
      "stateMutability": "nonpayable",
      "type": "constructor"
    },
    {
      "anonymous": false,
      "inputs": [
        {
          "indexed": false,
          "internalType": "address",
          "name": "token",
          "type": "address"
        },
        {
          "indexed": false,
          "internalType": "uint256",
          "name": "amount",
          "type": "uint256"
        }
      ],
      "name": "Recovered",
      "type": "event"
    },
    {
      "anonymous": false,
      "inputs": [
        {
          "indexed": false,
          "internalType": "uint256",
          "name": "reward",
          "type": "uint256"
        }
      ],
      "name": "RewardAdded",
      "type": "event"
    },
    {
      "anonymous": false,
      "inputs": [
        {
          "indexed": true,
          "internalType": "address",
          "name": "user",
          "type": "address"
        },
        {
          "indexed": false,
          "internalType": "uint256",
          "name": "reward",
          "type": "uint256"
        }
      ],
      "name": "RewardPaid",
      "type": "event"
    },
    {
      "anonymous": false,
      "inputs": [
        {
          "indexed": true,
          "internalType": "bytes32",
          "name": "role",
          "type": "bytes32"
        },
        {
          "indexed": true,
          "internalType": "bytes32",
          "name": "previousAdminRole",
          "type": "bytes32"
        },
        {
          "indexed": true,
          "internalType": "bytes32",
          "name": "newAdminRole",
          "type": "bytes32"
        }
      ],
      "name": "RoleAdminChanged",
      "type": "event"
    },
    {
      "anonymous": false,
      "inputs": [
        {
          "indexed": true,
          "internalType": "bytes32",
          "name": "role",
          "type": "bytes32"
        },
        {
          "indexed": true,
          "internalType": "address",
          "name": "account",
          "type": "address"
        },
        {
          "indexed": true,
          "internalType": "address",
          "name": "sender",
          "type": "address"
        }
      ],
      "name": "RoleGranted",
      "type": "event"
    },
    {
      "anonymous": false,
      "inputs": [
        {
          "indexed": true,
          "internalType": "bytes32",
          "name": "role",
          "type": "bytes32"
        },
        {
          "indexed": true,
          "internalType": "address",
          "name": "account",
          "type": "address"
        },
        {
          "indexed": true,
          "internalType": "address",
          "name": "sender",
          "type": "address"
        }
      ],
      "name": "RoleRevoked",
      "type": "event"
    },
    {
      "anonymous": false,
      "inputs": [
        {
          "indexed": true,
          "internalType": "address",
          "name": "user",
          "type": "address"
        },
        {
          "indexed": false,
          "internalType": "uint256",
          "name": "amount",
          "type": "uint256"
        }
      ],
      "name": "Staked",
      "type": "event"
    },
    {
      "anonymous": false,
      "inputs": [
        {
          "indexed": true,
          "internalType": "address",
          "name": "user",
          "type": "address"
        },
        {
          "indexed": false,
          "internalType": "uint256",
          "name": "amount",
          "type": "uint256"
        }
      ],
      "name": "Withdrawn",
      "type": "event"
    },
    {
      "inputs": [],
      "name": "DEFAULT_ADMIN_ROLE",
      "outputs": [
        {
          "internalType": "bytes32",
          "name": "",
          "type": "bytes32"
        }
      ],
      "stateMutability": "view",
      "type": "function"
    },
    {
      "inputs": [],
      "name": "DISTRIBUTION_ASSIGNER_ROLE",
      "outputs": [
        {
          "internalType": "bytes32",
          "name": "",
          "type": "bytes32"
        }
      ],
      "stateMutability": "view",
      "type": "function"
    },
    {
      "inputs": [],
      "name": "DURATION",
      "outputs": [
        {
          "internalType": "uint256",
          "name": "",
          "type": "uint256"
        }
      ],
      "stateMutability": "view",
      "type": "function"
    },
    {
      "inputs": [],
      "name": "RECOVER_ROLE",
      "outputs": [
        {
          "internalType": "bytes32",
          "name": "",
          "type": "bytes32"
        }
      ],
      "stateMutability": "view",
      "type": "function"
    },
    {
      "inputs": [
        {
          "internalType": "address",
          "name": "account",
          "type": "address"
        }
      ],
      "name": "balanceOf",
      "outputs": [
        {
          "internalType": "uint256",
          "name": "",
          "type": "uint256"
        }
      ],
      "stateMutability": "view",
      "type": "function"
    },
    {
      "inputs": [
        {
          "internalType": "address",
          "name": "account",
          "type": "address"
        }
      ],
      "name": "earned",
      "outputs": [
        {
          "internalType": "uint256",
          "name": "",
          "type": "uint256"
        }
      ],
      "stateMutability": "view",
      "type": "function"
    },
    {
      "inputs": [],
      "name": "exit",
      "outputs": [],
      "stateMutability": "nonpayable",
      "type": "function"
    },
    {
      "inputs": [],
      "name": "getReward",
      "outputs": [],
      "stateMutability": "nonpayable",
      "type": "function"
    },
    {
      "inputs": [],
      "name": "getRewardForDuration",
      "outputs": [
        {
          "internalType": "uint256",
          "name": "",
          "type": "uint256"
        }
      ],
      "stateMutability": "view",
      "type": "function"
    },
    {
      "inputs": [
        {
          "internalType": "bytes32",
          "name": "role",
          "type": "bytes32"
        }
      ],
      "name": "getRoleAdmin",
      "outputs": [
        {
          "internalType": "bytes32",
          "name": "",
          "type": "bytes32"
        }
      ],
      "stateMutability": "view",
      "type": "function"
    },
    {
      "inputs": [
        {
          "internalType": "bytes32",
          "name": "role",
          "type": "bytes32"
        },
        {
          "internalType": "uint256",
          "name": "index",
          "type": "uint256"
        }
      ],
      "name": "getRoleMember",
      "outputs": [
        {
          "internalType": "address",
          "name": "",
          "type": "address"
        }
      ],
      "stateMutability": "view",
      "type": "function"
    },
    {
      "inputs": [
        {
          "internalType": "bytes32",
          "name": "role",
          "type": "bytes32"
        }
      ],
      "name": "getRoleMemberCount",
      "outputs": [
        {
          "internalType": "uint256",
          "name": "",
          "type": "uint256"
        }
      ],
      "stateMutability": "view",
      "type": "function"
    },
    {
      "inputs": [
        {
          "internalType": "bytes32",
          "name": "role",
          "type": "bytes32"
        },
        {
          "internalType": "address",
          "name": "account",
          "type": "address"
        }
      ],
      "name": "grantRole",
      "outputs": [],
      "stateMutability": "nonpayable",
      "type": "function"
    },
    {
      "inputs": [
        {
          "internalType": "bytes32",
          "name": "role",
          "type": "bytes32"
        },
        {
          "internalType": "address",
          "name": "account",
          "type": "address"
        }
      ],
      "name": "hasRole",
      "outputs": [
        {
          "internalType": "bool",
          "name": "",
          "type": "bool"
        }
      ],
      "stateMutability": "view",
      "type": "function"
    },
    {
      "inputs": [],
      "name": "lastTimeRewardApplicable",
      "outputs": [
        {
          "internalType": "uint256",
          "name": "",
          "type": "uint256"
        }
      ],
      "stateMutability": "view",
      "type": "function"
    },
    {
      "inputs": [],
      "name": "lastUpdateTime",
      "outputs": [
        {
          "internalType": "uint256",
          "name": "",
          "type": "uint256"
        }
      ],
      "stateMutability": "view",
      "type": "function"
    },
    {
      "inputs": [],
      "name": "maximumContribution",
      "outputs": [
        {
          "internalType": "uint256",
          "name": "",
          "type": "uint256"
        }
      ],
      "stateMutability": "view",
      "type": "function"
    },
    {
      "inputs": [
        {
          "internalType": "uint256",
          "name": "reward",
          "type": "uint256"
        }
      ],
      "name": "notifyRewardAmount",
      "outputs": [],
      "stateMutability": "nonpayable",
      "type": "function"
    },
    {
      "inputs": [],
      "name": "periodFinish",
      "outputs": [
        {
          "internalType": "uint256",
          "name": "",
          "type": "uint256"
        }
      ],
      "stateMutability": "view",
      "type": "function"
    },
    {
      "inputs": [
        {
          "internalType": "address",
          "name": "tokenAddress",
          "type": "address"
        },
        {
          "internalType": "uint256",
          "name": "tokenAmount",
          "type": "uint256"
        }
      ],
      "name": "recoverERC20",
      "outputs": [],
      "stateMutability": "nonpayable",
      "type": "function"
    },
    {
      "inputs": [
        {
          "internalType": "bytes32",
          "name": "role",
          "type": "bytes32"
        },
        {
          "internalType": "address",
          "name": "account",
          "type": "address"
        }
      ],
      "name": "renounceRole",
      "outputs": [],
      "stateMutability": "nonpayable",
      "type": "function"
    },
    {
      "inputs": [
        {
          "internalType": "bytes32",
          "name": "role",
          "type": "bytes32"
        },
        {
          "internalType": "address",
          "name": "account",
          "type": "address"
        }
      ],
      "name": "revokeRole",
      "outputs": [],
      "stateMutability": "nonpayable",
      "type": "function"
    },
    {
      "inputs": [],
      "name": "rewardDistribution",
      "outputs": [
        {
          "internalType": "address",
          "name": "",
          "type": "address"
        }
      ],
      "stateMutability": "view",
      "type": "function"
    },
    {
      "inputs": [],
      "name": "rewardPerToken",
      "outputs": [
        {
          "internalType": "uint256",
          "name": "",
          "type": "uint256"
        }
      ],
      "stateMutability": "view",
      "type": "function"
    },
    {
      "inputs": [],
      "name": "rewardPerTokenStored",
      "outputs": [
        {
          "internalType": "uint256",
          "name": "",
          "type": "uint256"
        }
      ],
      "stateMutability": "view",
      "type": "function"
    },
    {
      "inputs": [],
      "name": "rewardRate",
      "outputs": [
        {
          "internalType": "uint256",
          "name": "",
          "type": "uint256"
        }
      ],
      "stateMutability": "view",
      "type": "function"
    },
    {
      "inputs": [],
      "name": "rewardToken",
      "outputs": [
        {
          "internalType": "contract IERC20",
          "name": "",
          "type": "address"
        }
      ],
      "stateMutability": "view",
      "type": "function"
    },
    {
      "inputs": [
        {
          "internalType": "address",
          "name": "",
          "type": "address"
        }
      ],
      "name": "rewards",
      "outputs": [
        {
          "internalType": "uint256",
          "name": "",
          "type": "uint256"
        }
      ],
      "stateMutability": "view",
      "type": "function"
    },
    {
      "inputs": [
        {
          "internalType": "address",
          "name": "_rewardDistribution",
          "type": "address"
        }
      ],
      "name": "setRewardDistribution",
      "outputs": [],
      "stateMutability": "nonpayable",
      "type": "function"
    },
    {
      "inputs": [
        {
          "internalType": "uint256",
          "name": "",
          "type": "uint256"
        }
      ],
      "name": "stake",
      "outputs": [],
      "stateMutability": "pure",
      "type": "function"
    },
    {
      "inputs": [],
      "name": "stakeToken",
      "outputs": [
        {
          "internalType": "contract IERC20",
          "name": "",
          "type": "address"
        }
      ],
      "stateMutability": "view",
      "type": "function"
    },
    {
      "inputs": [
        {
          "internalType": "uint256",
          "name": "amount",
          "type": "uint256"
        },
        {
          "internalType": "bytes32[]",
          "name": "proof",
          "type": "bytes32[]"
        }
      ],
      "name": "stakeWithProof",
      "outputs": [],
      "stateMutability": "nonpayable",
      "type": "function"
    },
    {
      "inputs": [],
      "name": "totalSupply",
      "outputs": [
        {
          "internalType": "uint256",
          "name": "",
          "type": "uint256"
        }
      ],
      "stateMutability": "view",
      "type": "function"
    },
    {
      "inputs": [
        {
          "internalType": "address",
          "name": "",
          "type": "address"
        }
      ],
      "name": "userRewardPerTokenPaid",
      "outputs": [
        {
          "internalType": "uint256",
          "name": "",
          "type": "uint256"
        }
      ],
      "stateMutability": "view",
      "type": "function"
    },
    {
      "inputs": [],
      "name": "whitelist",
      "outputs": [
        {
          "internalType": "contract IWhitelist",
          "name": "",
          "type": "address"
        }
      ],
      "stateMutability": "view",
      "type": "function"
    },
    {
      "inputs": [
        {
          "internalType": "uint256",
          "name": "amount",
          "type": "uint256"
        }
      ],
      "name": "withdraw",
      "outputs": [],
      "stateMutability": "nonpayable",
      "type": "function"
    }
  ],
  "transactionHash": "0xb4e2b39e9c5fa06862a7d51544a170ce35ba9793058439d0c70b4dd241670a27",
  "args": [
    "0xdE4B9cBaD10cdFf96eE4b1f9C7568283e96C0089",
    "0x383dF49ad1f0219759a46399fE33Cb7A63cd051c",
    "0xe20B0199A86d703F98Ae7f0b3aC2802d942043Ce",
    "0x24A6A37576377F63f194Caa5F518a60f45b42921",
    "0xa0b86991c6218b36c1d19d4a2e9eb0ce3606eb48",
    "0x02540be400"
  ],
  "solcInputHash": "616d2256abf661836a9c9e5784b4a1dc",
  "bytecode": "0x6080604052600060055560006006553480156200001b57600080fd5b506040516200275e3803806200275e833981810160405260c08110156200004157600080fd5b508051602082015160408301516060840151608085015160a09095015193949293919290918585848483620000977f32d611cddb9575a9b749d29624cab333eb23b65b17d0995589b5ce4fba0af7878262000146565b506001600281905580546001600160a01b038086166001600160a01b031992831617909255600380548584169083161790556004805492841692909116919091179055620000e760008562000146565b620001137f62b337eaefec74dadf1a62e856bf9db4f14a0f27d4f48156a95a9f98e7d5e0668562000146565b5050600d80546001600160a01b0319166001600160a01b03979097169690961790955550600e55506200025a9350505050565b62000152828262000156565b5050565b6000828152602081815260409091206200017b91839062001511620001cf821b17901c565b1562000152576200018b620001ef565b6001600160a01b0316816001600160a01b0316837f2f8788117e7eff1d82e926ec794901d17c78024a50270940304540a733656f0d60405160405180910390a45050565b6000620001e6836001600160a01b038416620001f3565b90505b92915050565b3390565b600062000201838362000242565b6200023957508154600181810184556000848152602080822090930184905584548482528286019093526040902091909155620001e9565b506000620001e9565b60009081526001919091016020526040902054151590565b6124f4806200026a6000396000f3fe608060405234801561001057600080fd5b506004361061025b5760003560e01c80638b87634711610145578063c8f33c91116100bd578063d547741f1161008c578063e9fad8ee11610071578063e9fad8ee14610678578063ebe2b12b14610680578063f7c618c1146106885761025b565b8063d547741f14610637578063df136d65146106705761025b565b8063c8f33c9114610602578063ca15c8731461060a578063cd3daf9d14610627578063d2ef3d0f1461062f5761025b565b806393e59dc1116101145780639c2fcd45116100f95780639c2fcd45146105d5578063a217fddf146105dd578063a694fc3a146105e55761025b565b806393e59dc1146105565780639c1298a01461055e5761025b565b80638b876347146104ab5780639010d07c146104de57806391d1485414610501578063939bcbc91461054e5761025b565b80632f2ff15d116101d857806351ed6a30116101a75780637b0a47ee1161018c5780637b0a47ee1461046257806380faa57d1461046a5780638980f11f146104725761025b565b806351ed6a301461042757806370a082311461042f5761025b565b80632f2ff15d1461039057806336568abe146103c95780633c6b16ab146104025780633d18b9121461041f5761025b565b806318160ddd1161022f5780631c1f78eb116102145780631c1f78eb1461034e578063248a9ca3146103565780632e1a7d4d146103735761025b565b806318160ddd1461033e5780631be05289146103465761025b565b80628cc262146102605780630700037d146102a55780630d68b761146102d8578063101114cf1461030d575b600080fd5b6102936004803603602081101561027657600080fd5b503573ffffffffffffffffffffffffffffffffffffffff16610690565b60408051918252519081900360200190f35b610293600480360360208110156102bb57600080fd5b503573ffffffffffffffffffffffffffffffffffffffff1661070b565b61030b600480360360208110156102ee57600080fd5b503573ffffffffffffffffffffffffffffffffffffffff1661071d565b005b6103156107ea565b6040805173ffffffffffffffffffffffffffffffffffffffff9092168252519081900360200190f35b610293610806565b61029361080d565b610293610814565b6102936004803603602081101561036c57600080fd5b503561082c565b61030b6004803603602081101561038957600080fd5b5035610841565b61030b600480360360408110156103a657600080fd5b508035906020013573ffffffffffffffffffffffffffffffffffffffff166109ac565b61030b600480360360408110156103df57600080fd5b508035906020013573ffffffffffffffffffffffffffffffffffffffff16610a2d565b61030b6004803603602081101561041857600080fd5b5035610ac2565b61030b610d79565b610315610e71565b6102936004803603602081101561044557600080fd5b503573ffffffffffffffffffffffffffffffffffffffff16610e8d565b610293610eb5565b610293610ebb565b61030b6004803603604081101561048857600080fd5b5073ffffffffffffffffffffffffffffffffffffffff8135169060200135610ec9565b610293600480360360208110156104c157600080fd5b503573ffffffffffffffffffffffffffffffffffffffff166110b0565b610315600480360360408110156104f457600080fd5b50803590602001356110c2565b61053a6004803603604081101561051757600080fd5b508035906020013573ffffffffffffffffffffffffffffffffffffffff166110e1565b604080519115158252519081900360200190f35b6102936110f9565b61031561111d565b61030b6004803603604081101561057457600080fd5b8135919081019060408101602082013564010000000081111561059657600080fd5b8201836020820111156105a857600080fd5b803590602001918460208302840111640100000000831117156105ca57600080fd5b509092509050611139565b610293611370565b610293611376565b61030b600480360360208110156105fb57600080fd5b503561137b565b6102936113cc565b6102936004803603602081101561062057600080fd5b50356113d2565b6102936113e9565b610293611437565b61030b6004803603604081101561064d57600080fd5b508035906020013573ffffffffffffffffffffffffffffffffffffffff1661145b565b6102936114ce565b61030b6114d4565b6102936114ef565b6103156114f5565b73ffffffffffffffffffffffffffffffffffffffff81166000908152600a6020908152604080832054600990925282205461070591906106ff90670de0b6b3a7640000906106f9906106ea906106e46113e9565b90611533565b6106f388610e8d565b90611575565b906115e8565b9061162a565b92915050565b600a6020526000908152604090205481565b61074e7f32d611cddb9575a9b749d29624cab333eb23b65b17d0995589b5ce4fba0af78761074961169e565b6110e1565b6107a3576040517f08c379a00000000000000000000000000000000000000000000000000000000081526004018080602001828103825260588152602001806121886058913960600191505060405180910390fd5b600180547fffffffffffffffffffffffff00000000000000000000000000000000000000001673ffffffffffffffffffffffffffffffffffffffff92909216919091179055565b60015473ffffffffffffffffffffffffffffffffffffffff1681565b600b545b90565b62093a8081565b6006546000906108279062093a80611575565b905090565b60009081526020819052604090206002015490565b3361084a6113e9565b600855610855610ebb565b60075573ffffffffffffffffffffffffffffffffffffffff8116156108b65761087d81610690565b73ffffffffffffffffffffffffffffffffffffffff82166000908152600a60209081526040808320939093556008546009909152919020555b6000821161090f576040517f08c379a00000000000000000000000000000000000000000000000000000000081526004018080602001828103825260278152602001806121616027913960400191505060405180910390fd5b600b5461091c9083611533565b600b55336000908152600c60205260409020546109399083611533565b336000818152600c60205260409020919091556004546109729173ffffffffffffffffffffffffffffffffffffffff90911690846116a2565b60408051838152905133917f7084f5476618d8e60b11ef0d7d3f06914655adb8793e28ff7f018d4c76d505d5919081900360200190a25050565b6000828152602081905260409020600201546109ca9061074961169e565b610a1f576040517f08c379a000000000000000000000000000000000000000000000000000000000815260040180806020018281038252602f8152602001806120fd602f913960400191505060405180910390fd5b610a298282611734565b5050565b610a3561169e565b73ffffffffffffffffffffffffffffffffffffffff168173ffffffffffffffffffffffffffffffffffffffff1614610ab8576040517f08c379a000000000000000000000000000000000000000000000000000000000815260040180806020018281038252602f815260200180612490602f913960400191505060405180910390fd5b610a2982826117b7565b60015473ffffffffffffffffffffffffffffffffffffffff16610ae361169e565b73ffffffffffffffffffffffffffffffffffffffff1614610b4f576040517f08c379a000000000000000000000000000000000000000000000000000000000815260040180806020018281038252605e815260200180612354605e913960600191505060405180910390fd5b6000610b596113e9565b600855610b64610ebb565b60075573ffffffffffffffffffffffffffffffffffffffff811615610bc557610b8c81610690565b73ffffffffffffffffffffffffffffffffffffffff82166000908152600a60209081526040808320939093556008546009909152919020555b6005544210610be357610bdb8262093a806115e8565b600655610c25565b600554600090610bf39042611533565b90506000610c0c6006548361157590919063ffffffff16565b9050610c1f62093a806106f9868461162a565b60065550505b600354604080517f70a08231000000000000000000000000000000000000000000000000000000008152306004820152905160009273ffffffffffffffffffffffffffffffffffffffff16916370a08231916024808301926020929190829003018186803b158015610c9657600080fd5b505afa158015610caa573d6000803e3d6000fd5b505050506040513d6020811015610cc057600080fd5b50519050610cd18162093a806115e8565b6006541115610d2b576040517f08c379a00000000000000000000000000000000000000000000000000000000081526004018080602001828103825260438152602001806122b66043913960600191505060405180910390fd5b426007819055610d3e9062093a8061162a565b6005556040805184815290517fde88a922e0d3b88b24e9623efeb464919c6bf9f66857a65e2bfcf2ce87a9433d9181900360200190a1505050565b33610d826113e9565b600855610d8d610ebb565b60075573ffffffffffffffffffffffffffffffffffffffff811615610dee57610db581610690565b73ffffffffffffffffffffffffffffffffffffffff82166000908152600a60209081526040808320939093556008546009909152919020555b6000610df933610690565b90508015610a2957336000818152600a6020526040812055600354610e379173ffffffffffffffffffffffffffffffffffffffff90911690836116a2565b60408051828152905133917fe2403640ba68fed3a2f88b7557551d1993f84b99bb10ff833f0cf8db0c5e0486919081900360200190a25050565b60045473ffffffffffffffffffffffffffffffffffffffff1681565b73ffffffffffffffffffffffffffffffffffffffff166000908152600c602052604090205490565b60065481565b60006108274260055461183a565b610ef57f62b337eaefec74dadf1a62e856bf9db4f14a0f27d4f48156a95a9f98e7d5e06661074961169e565b610f4a576040517f08c379a000000000000000000000000000000000000000000000000000000000815260040180806020018281038252604c8152602001806123b2604c913960600191505060405180910390fd5b60045473ffffffffffffffffffffffffffffffffffffffff83811691161415610fbe576040517f08c379a000000000000000000000000000000000000000000000000000000000815260040180806020018281038252603a8152602001806122f9603a913960400191505060405180910390fd5b60035473ffffffffffffffffffffffffffffffffffffffff83811691161415611032576040517f08c379a000000000000000000000000000000000000000000000000000000000815260040180806020018281038252603981526020018061227d6039913960400191505060405180910390fd5b61105b61103d61169e565b73ffffffffffffffffffffffffffffffffffffffff841690836116a2565b6040805173ffffffffffffffffffffffffffffffffffffffff841681526020810183905281517f8c1256b8896378cd5044f80c202f9772b9d77dc85c8a6eb51967210b09bfaa28929181900390910190a15050565b60096020526000908152604090205481565b60008281526020819052604081206110da9083611850565b9392505050565b60008281526020819052604081206110da908361185c565b7f62b337eaefec74dadf1a62e856bf9db4f14a0f27d4f48156a95a9f98e7d5e06681565b600d5473ffffffffffffffffffffffffffffffffffffffff1681565b600d548290829073ffffffffffffffffffffffffffffffffffffffff1663e3ce411b61116361169e565b84846040518463ffffffff1660e01b8152600401808473ffffffffffffffffffffffffffffffffffffffff168152602001806020018281038252848482818152602001925060200280828437600083820152604051601f9091017fffffffffffffffffffffffffffffffffffffffffffffffffffffffffffffffe016909201965060209550909350505081840390508186803b15801561120257600080fd5b505afa158015611216573d6000803e3d6000fd5b505050506040513d602081101561122c57600080fd5b5051611283576040517f08c379a000000000000000000000000000000000000000000000000000000000815260040180806020018281038252604781526020018061241f6047913960600191505060405180910390fd5b3361128c6113e9565b600855611297610ebb565b60075573ffffffffffffffffffffffffffffffffffffffff8116156112f8576112bf81610690565b73ffffffffffffffffffffffffffffffffffffffff82166000908152600a60209081526040808320939093556008546009909152919020555b600e54611308876106ff33610e8d565b111561135f576040517f08c379a000000000000000000000000000000000000000000000000000000000815260040180806020018281038252603581526020018061212c6035913960400191505060405180910390fd5b6113688661187e565b505050505050565b600e5481565b600081565b6040517f08c379a00000000000000000000000000000000000000000000000000000000081526004018080602001828103825260478152602001806122366047913960600191505060405180910390fd5b60075481565b6000818152602081905260408120610705906119ea565b60006113f3610806565b611400575060085461080a565b61082761142e61140e610806565b6106f9670de0b6b3a76400006106f36006546106f36007546106e4610ebb565b6008549061162a565b7f32d611cddb9575a9b749d29624cab333eb23b65b17d0995589b5ce4fba0af78781565b6000828152602081905260409020600201546114799061074961169e565b610ab8576040517f08c379a00000000000000000000000000000000000000000000000000000000081526004018080602001828103825260308152602001806122066030913960400191505060405180910390fd5b60085481565b6114e56114e033610e8d565b610841565b6114ed610d79565b565b60055481565b60035473ffffffffffffffffffffffffffffffffffffffff1681565b60006110da8373ffffffffffffffffffffffffffffffffffffffff84166119f5565b60006110da83836040518060400160405280601e81526020017f536166654d6174683a207375627472616374696f6e206f766572666c6f770000815250611a3f565b60008261158457506000610705565b8282028284828161159157fe5b04146110da576040517f08c379a00000000000000000000000000000000000000000000000000000000081526004018080602001828103825260218152602001806123336021913960400191505060405180910390fd5b60006110da83836040518060400160405280601a81526020017f536166654d6174683a206469766973696f6e206279207a65726f000000000000815250611af0565b6000828201838110156110da57604080517f08c379a000000000000000000000000000000000000000000000000000000000815260206004820152601b60248201527f536166654d6174683a206164646974696f6e206f766572666c6f770000000000604482015290519081900360640190fd5b3390565b6040805173ffffffffffffffffffffffffffffffffffffffff8416602482015260448082018490528251808303909101815260649091019091526020810180517bffffffffffffffffffffffffffffffffffffffffffffffffffffffff167fa9059cbb0000000000000000000000000000000000000000000000000000000017905261172f908490611b6f565b505050565b600082815260208190526040902061174c9082611511565b15610a295761175961169e565b73ffffffffffffffffffffffffffffffffffffffff168173ffffffffffffffffffffffffffffffffffffffff16837f2f8788117e7eff1d82e926ec794901d17c78024a50270940304540a733656f0d60405160405180910390a45050565b60008281526020819052604090206117cf9082611c47565b15610a29576117dc61169e565b73ffffffffffffffffffffffffffffffffffffffff168173ffffffffffffffffffffffffffffffffffffffff16837ff6391f5c32d9c69d2a47ea670b442974b53935d1edc7fd64eb21e047a839171b60405160405180910390a45050565b600081831061184957816110da565b5090919050565b60006110da8383611c69565b60006110da8373ffffffffffffffffffffffffffffffffffffffff8416611ce7565b336118876113e9565b600855611892610ebb565b60075573ffffffffffffffffffffffffffffffffffffffff8116156118f3576118ba81610690565b73ffffffffffffffffffffffffffffffffffffffff82166000908152600a60209081526040808320939093556008546009909152919020555b6000821161194c576040517f08c379a00000000000000000000000000000000000000000000000000000000081526004018080602001828103825260218152602001806123fe6021913960400191505060405180910390fd5b600b54611959908361162a565b600b55336000908152600c6020526040902054611976908361162a565b336000818152600c60205260409020919091556004546119b09173ffffffffffffffffffffffffffffffffffffffff909116903085611cff565b60408051838152905133917f9e71bc8eea02a63969f509818f2dafb9254532904319f9dbda79b67bd34a5f3d919081900360200190a25050565b600061070582611d9a565b6000611a018383611ce7565b611a3757508154600181810184556000848152602080822090930184905584548482528286019093526040902091909155610705565b506000610705565b60008184841115611ae8576040517f08c379a00000000000000000000000000000000000000000000000000000000081526004018080602001828103825283818151815260200191508051906020019080838360005b83811015611aad578181015183820152602001611a95565b50505050905090810190601f168015611ada5780820380516001836020036101000a031916815260200191505b509250505060405180910390fd5b505050900390565b60008183611b59576040517f08c379a0000000000000000000000000000000000000000000000000000000008152602060048201818152835160248401528351909283926044909101919085019080838360008315611aad578181015183820152602001611a95565b506000838581611b6557fe5b0495945050505050565b6060611bd1826040518060400160405280602081526020017f5361666545524332303a206c6f772d6c6576656c2063616c6c206661696c65648152508573ffffffffffffffffffffffffffffffffffffffff16611d9e9092919063ffffffff16565b80519091501561172f57808060200190516020811015611bf057600080fd5b505161172f576040517f08c379a000000000000000000000000000000000000000000000000000000000815260040180806020018281038252602a815260200180612466602a913960400191505060405180910390fd5b60006110da8373ffffffffffffffffffffffffffffffffffffffff8416611db5565b81546000908210611cc5576040517f08c379a00000000000000000000000000000000000000000000000000000000081526004018080602001828103825260228152602001806120db6022913960400191505060405180910390fd5b826000018281548110611cd457fe5b9060005260206000200154905092915050565b60009081526001919091016020526040902054151590565b6040805173ffffffffffffffffffffffffffffffffffffffff80861660248301528416604482015260648082018490528251808303909101815260849091019091526020810180517bffffffffffffffffffffffffffffffffffffffffffffffffffffffff167f23b872dd00000000000000000000000000000000000000000000000000000000179052611d94908590611b6f565b50505050565b5490565b6060611dad8484600085611e99565b949350505050565b60008181526001830160205260408120548015611e8f5783547fffffffffffffffffffffffffffffffffffffffffffffffffffffffffffffffff8083019190810190600090879083908110611e0657fe5b9060005260206000200154905080876000018481548110611e2357fe5b600091825260208083209091019290925582815260018981019092526040902090840190558654879080611e5357fe5b60019003818190600052602060002001600090559055866001016000878152602001908152602001600020600090556001945050505050610705565b6000915050610705565b606082471015611ef4576040517f08c379a00000000000000000000000000000000000000000000000000000000081526004018080602001828103825260268152602001806121e06026913960400191505060405180910390fd5b611efd85612054565b611f6857604080517f08c379a000000000000000000000000000000000000000000000000000000000815260206004820152601d60248201527f416464726573733a2063616c6c20746f206e6f6e2d636f6e7472616374000000604482015290519081900360640190fd5b600060608673ffffffffffffffffffffffffffffffffffffffff1685876040518082805190602001908083835b60208310611fd257805182527fffffffffffffffffffffffffffffffffffffffffffffffffffffffffffffffe09092019160209182019101611f95565b6001836020036101000a03801982511681845116808217855250505050505090500191505060006040518083038185875af1925050503d8060008114612034576040519150601f19603f3d011682016040523d82523d6000602084013e612039565b606091505b509150915061204982828661205a565b979650505050505050565b3b151590565b606083156120695750816110da565b8251156120795782518084602001fd5b6040517f08c379a0000000000000000000000000000000000000000000000000000000008152602060048201818152845160248401528451859391928392604401919085019080838360008315611aad578181015183820152602001611a9556fe456e756d657261626c655365743a20696e646578206f7574206f6620626f756e6473416363657373436f6e74726f6c3a2073656e646572206d75737420626520616e2061646d696e20746f206772616e74506861736531506f6f6c3a3a7374616b653a2043616e6e6f7420657863656564206d6178696d756d20636f6e747269627574696f6e506861736532506f6f6c3a3a77697468647261773a2043616e6e6f742077697468647261772030526577617264446973747269627574696f6e526563697069656e743a3a736574526577617264446973747269627574696f6e3a206d757374206861766520646973747269627574696f6e2061737369676e657220726f6c65416464726573733a20696e73756666696369656e742062616c616e636520666f722063616c6c416363657373436f6e74726f6c3a2073656e646572206d75737420626520616e2061646d696e20746f207265766f6b65506861736531506f6f6c3a3a7374616b653a2043616e6e6f74207374616b65206f6e20506861736531506f6f6c206469726563746c792064756520746f2077686974656c697374506861736532506f6f6c3a3a7265636f76657245524332303a2043616e6e6f74207265636f766572207468652072657761726420746f6b656e506861736532506f6f6c3a3a6e6f74696679526577617264416d6f756e743a20496e737566666963656e742062616c616e636520666f72207265776172642072617465506861736532506f6f6c3a3a7265636f76657245524332303a2043616e6e6f74207265636f76657220746865207374616b696e6720746f6b656e536166654d6174683a206d756c7469706c69636174696f6e206f766572666c6f775265776172644469737269627574696f6e526563697069656e743a3a6f6e6c79526577617264446973747269627574696f6e3a2043616c6c6572206973206e6f742052657761726473446973747269627574696f6e20636f6e7472616374506861736532506f6f6c3a3a7265636f76657245524332303a20596f75206d75737420706f737365737320746865207265636f76657220726f6c6520746f207265636f766572206572633230506861736532506f6f6c3a3a7374616b653a2043616e6e6f74207374616b65203057686974656c69737465643a3a6f6e6c7957686974656c69737465643a2043616c6c6572206973206e6f742077686974656c6973746564202f2070726f6f6620696e76616c69645361666545524332303a204552433230206f7065726174696f6e20646964206e6f742073756363656564416363657373436f6e74726f6c3a2063616e206f6e6c792072656e6f756e636520726f6c657320666f722073656c66a26469706673582212204c9c8ae8435162c06d82722ca2d71bd43c30d3a3b114cc05c52c0e413a317ea364736f6c63430007040033",
  "devdoc": {
    "kind": "dev",
    "methods": {
      "constructor": {
        "params": {
          "_admin": "The default role controller for ",
          "_maximumContribution": "The maximum contribution for this token (in the unit of the respective contract)",
          "_rewardDistribution": "The reward distributor (can change reward rate)",
          "_rewardToken": "The reward token to distribute",
          "_stakingToken": "The staking token used to qualify for rewards",
          "_whitelist": "The address of the deployed whitelist contract"
        }
      },
      "getRoleAdmin(bytes32)": {
        "details": "Returns the admin role that controls `role`. See {grantRole} and {revokeRole}. To change a role's admin, use {_setRoleAdmin}."
      },
      "getRoleMember(bytes32,uint256)": {
        "details": "Returns one of the accounts that have `role`. `index` must be a value between 0 and {getRoleMemberCount}, non-inclusive. Role bearers are not sorted in any particular way, and their ordering may change at any point. WARNING: When using {getRoleMember} and {getRoleMemberCount}, make sure you perform all queries on the same block. See the following https://forum.openzeppelin.com/t/iterating-over-elements-on-enumerableset-in-openzeppelin-contracts/2296[forum post] for more information."
      },
      "getRoleMemberCount(bytes32)": {
        "details": "Returns the number of accounts that have `role`. Can be used together with {getRoleMember} to enumerate all bearers of a role."
      },
      "grantRole(bytes32,address)": {
        "details": "Grants `role` to `account`. If `account` had not been already granted `role`, emits a {RoleGranted} event. Requirements: - the caller must have ``role``'s admin role."
      },
      "hasRole(bytes32,address)": {
        "details": "Returns `true` if `account` has been granted `role`."
      },
      "notifyRewardAmount(uint256)": {
        "params": {
          "reward": "number of tokens to be distributed over the duration."
        }
      },
      "recoverERC20(address,uint256)": {
        "details": "Sourced from synthetix/contracts/StakingRewards.sol"
      },
      "renounceRole(bytes32,address)": {
        "details": "Revokes `role` from the calling account. Roles are often managed via {grantRole} and {revokeRole}: this function's purpose is to provide a mechanism for accounts to lose their privileges if they are compromised (such as when a trusted device is misplaced). If the calling account had been granted `role`, emits a {RoleRevoked} event. Requirements: - the caller must be `account`."
      },
      "revokeRole(bytes32,address)": {
        "details": "Revokes `role` from `account`. If `account` had been granted `role`, emits a {RoleRevoked} event. Requirements: - the caller must have ``role``'s admin role."
      }
    },
    "version": 1
  },
  "userdoc": {
    "kind": "user",
    "methods": {
      "constructor": {
        "notice": "Construct a new Phase1Pool"
      },
      "notifyRewardAmount(uint256)": {
        "notice": "Should be called after the amount of reward tokens has been sent to the contract. Reward should be divisible by duration."
      },
      "recoverERC20(address,uint256)": {
        "notice": "Provide accidental token retrieval. "
      }
    },
    "version": 1
  },
  "storageLayout": {
    "storage": [
      {
        "astId": 45,
        "contract": "contracts/Phase1Pool.sol:Phase1Pool",
        "label": "_roles",
        "offset": 0,
        "slot": "0",
        "type": "t_mapping(t_bytes32,t_struct(RoleData)41_storage)"
      },
      {
        "astId": 3255,
        "contract": "contracts/Phase1Pool.sol:Phase1Pool",
        "label": "rewardDistribution",
        "offset": 0,
        "slot": "1",
        "type": "t_address"
      },
      {
        "astId": 2289,
        "contract": "contracts/Phase1Pool.sol:Phase1Pool",
        "label": "_status",
        "offset": 0,
        "slot": "2",
        "type": "t_uint256"
      },
      {
        "astId": 2674,
        "contract": "contracts/Phase1Pool.sol:Phase1Pool",
        "label": "rewardToken",
        "offset": 0,
        "slot": "3",
        "type": "t_contract(IERC20)1251"
      },
      {
        "astId": 2676,
        "contract": "contracts/Phase1Pool.sol:Phase1Pool",
        "label": "stakeToken",
        "offset": 0,
        "slot": "4",
        "type": "t_contract(IERC20)1251"
      },
      {
        "astId": 2679,
        "contract": "contracts/Phase1Pool.sol:Phase1Pool",
        "label": "periodFinish",
        "offset": 0,
        "slot": "5",
        "type": "t_uint256"
      },
      {
        "astId": 2682,
        "contract": "contracts/Phase1Pool.sol:Phase1Pool",
        "label": "rewardRate",
        "offset": 0,
        "slot": "6",
        "type": "t_uint256"
      },
      {
        "astId": 2684,
        "contract": "contracts/Phase1Pool.sol:Phase1Pool",
        "label": "lastUpdateTime",
        "offset": 0,
        "slot": "7",
        "type": "t_uint256"
      },
      {
        "astId": 2686,
        "contract": "contracts/Phase1Pool.sol:Phase1Pool",
        "label": "rewardPerTokenStored",
        "offset": 0,
        "slot": "8",
        "type": "t_uint256"
      },
      {
        "astId": 2690,
        "contract": "contracts/Phase1Pool.sol:Phase1Pool",
        "label": "userRewardPerTokenPaid",
        "offset": 0,
        "slot": "9",
        "type": "t_mapping(t_address,t_uint256)"
      },
      {
        "astId": 2694,
        "contract": "contracts/Phase1Pool.sol:Phase1Pool",
        "label": "rewards",
        "offset": 0,
        "slot": "10",
        "type": "t_mapping(t_address,t_uint256)"
      },
      {
        "astId": 2696,
        "contract": "contracts/Phase1Pool.sol:Phase1Pool",
        "label": "_totalSupply",
        "offset": 0,
        "slot": "11",
        "type": "t_uint256"
      },
      {
        "astId": 2700,
        "contract": "contracts/Phase1Pool.sol:Phase1Pool",
        "label": "_balances",
        "offset": 0,
        "slot": "12",
        "type": "t_mapping(t_address,t_uint256)"
      },
      {
        "astId": 3770,
        "contract": "contracts/Phase1Pool.sol:Phase1Pool",
        "label": "whitelist",
        "offset": 0,
        "slot": "13",
        "type": "t_contract(IWhitelist)3832"
      },
      {
        "astId": 2552,
        "contract": "contracts/Phase1Pool.sol:Phase1Pool",
        "label": "maximumContribution",
        "offset": 0,
        "slot": "14",
        "type": "t_uint256"
      }
    ],
    "types": {
      "t_address": {
        "encoding": "inplace",
        "label": "address",
        "numberOfBytes": "20"
      },
      "t_array(t_bytes32)dyn_storage": {
        "base": "t_bytes32",
        "encoding": "dynamic_array",
        "label": "bytes32[]",
        "numberOfBytes": "32"
      },
      "t_bytes32": {
        "encoding": "inplace",
        "label": "bytes32",
        "numberOfBytes": "32"
      },
      "t_contract(IERC20)1251": {
        "encoding": "inplace",
        "label": "contract IERC20",
        "numberOfBytes": "20"
      },
      "t_contract(IWhitelist)3832": {
        "encoding": "inplace",
        "label": "contract IWhitelist",
        "numberOfBytes": "20"
      },
      "t_mapping(t_address,t_uint256)": {
        "encoding": "mapping",
        "key": "t_address",
        "label": "mapping(address => uint256)",
        "numberOfBytes": "32",
        "value": "t_uint256"
      },
      "t_mapping(t_bytes32,t_struct(RoleData)41_storage)": {
        "encoding": "mapping",
        "key": "t_bytes32",
        "label": "mapping(bytes32 => struct AccessControl.RoleData)",
        "numberOfBytes": "32",
        "value": "t_struct(RoleData)41_storage"
      },
      "t_mapping(t_bytes32,t_uint256)": {
        "encoding": "mapping",
        "key": "t_bytes32",
        "label": "mapping(bytes32 => uint256)",
        "numberOfBytes": "32",
        "value": "t_uint256"
      },
      "t_struct(AddressSet)1984_storage": {
        "encoding": "inplace",
        "label": "struct EnumerableSet.AddressSet",
        "members": [
          {
            "astId": 1983,
            "contract": "contracts/Phase1Pool.sol:Phase1Pool",
            "label": "_inner",
            "offset": 0,
            "slot": "0",
            "type": "t_struct(Set)1719_storage"
          }
        ],
        "numberOfBytes": "64"
      },
      "t_struct(RoleData)41_storage": {
        "encoding": "inplace",
        "label": "struct AccessControl.RoleData",
        "members": [
          {
            "astId": 38,
            "contract": "contracts/Phase1Pool.sol:Phase1Pool",
            "label": "members",
            "offset": 0,
            "slot": "0",
            "type": "t_struct(AddressSet)1984_storage"
          },
          {
            "astId": 40,
            "contract": "contracts/Phase1Pool.sol:Phase1Pool",
            "label": "adminRole",
            "offset": 0,
            "slot": "2",
            "type": "t_bytes32"
          }
        ],
        "numberOfBytes": "96"
      },
      "t_struct(Set)1719_storage": {
        "encoding": "inplace",
        "label": "struct EnumerableSet.Set",
        "members": [
          {
            "astId": 1714,
            "contract": "contracts/Phase1Pool.sol:Phase1Pool",
            "label": "_values",
            "offset": 0,
            "slot": "0",
            "type": "t_array(t_bytes32)dyn_storage"
          },
          {
            "astId": 1718,
            "contract": "contracts/Phase1Pool.sol:Phase1Pool",
            "label": "_indexes",
            "offset": 0,
            "slot": "1",
            "type": "t_mapping(t_bytes32,t_uint256)"
          }
        ],
        "numberOfBytes": "64"
      },
      "t_uint256": {
        "encoding": "inplace",
        "label": "uint256",
        "numberOfBytes": "32"
      }
    }
  }
}