{
  "address": "0x673B95d277eF022e5eFaF9f167FFDFAB36991738",
  "abi": [
    {
      "inputs": [
        {
          "internalType": "address",
          "name": "_admin",
          "type": "address"
        },
        {
          "internalType": "address",
          "name": "_rewardDistribution",
          "type": "address"
        },
        {
          "internalType": "address",
          "name": "_rewardToken",
          "type": "address"
        },
        {
          "internalType": "address",
          "name": "_stakingToken",
          "type": "address"
        }
      ],
      "stateMutability": "nonpayable",
      "type": "constructor"
    },
    {
      "anonymous": false,
      "inputs": [
        {
          "indexed": false,
          "internalType": "address",
          "name": "token",
          "type": "address"
        },
        {
          "indexed": false,
          "internalType": "uint256",
          "name": "amount",
          "type": "uint256"
        }
      ],
      "name": "Recovered",
      "type": "event"
    },
    {
      "anonymous": false,
      "inputs": [
        {
          "indexed": false,
          "internalType": "uint256",
          "name": "reward",
          "type": "uint256"
        }
      ],
      "name": "RewardAdded",
      "type": "event"
    },
    {
      "anonymous": false,
      "inputs": [
        {
          "indexed": true,
          "internalType": "address",
          "name": "user",
          "type": "address"
        },
        {
          "indexed": false,
          "internalType": "uint256",
          "name": "reward",
          "type": "uint256"
        }
      ],
      "name": "RewardPaid",
      "type": "event"
    },
    {
      "anonymous": false,
      "inputs": [
        {
          "indexed": true,
          "internalType": "bytes32",
          "name": "role",
          "type": "bytes32"
        },
        {
          "indexed": true,
          "internalType": "bytes32",
          "name": "previousAdminRole",
          "type": "bytes32"
        },
        {
          "indexed": true,
          "internalType": "bytes32",
          "name": "newAdminRole",
          "type": "bytes32"
        }
      ],
      "name": "RoleAdminChanged",
      "type": "event"
    },
    {
      "anonymous": false,
      "inputs": [
        {
          "indexed": true,
          "internalType": "bytes32",
          "name": "role",
          "type": "bytes32"
        },
        {
          "indexed": true,
          "internalType": "address",
          "name": "account",
          "type": "address"
        },
        {
          "indexed": true,
          "internalType": "address",
          "name": "sender",
          "type": "address"
        }
      ],
      "name": "RoleGranted",
      "type": "event"
    },
    {
      "anonymous": false,
      "inputs": [
        {
          "indexed": true,
          "internalType": "bytes32",
          "name": "role",
          "type": "bytes32"
        },
        {
          "indexed": true,
          "internalType": "address",
          "name": "account",
          "type": "address"
        },
        {
          "indexed": true,
          "internalType": "address",
          "name": "sender",
          "type": "address"
        }
      ],
      "name": "RoleRevoked",
      "type": "event"
    },
    {
      "anonymous": false,
      "inputs": [
        {
          "indexed": true,
          "internalType": "address",
          "name": "user",
          "type": "address"
        },
        {
          "indexed": false,
          "internalType": "uint256",
          "name": "amount",
          "type": "uint256"
        }
      ],
      "name": "Staked",
      "type": "event"
    },
    {
      "anonymous": false,
      "inputs": [
        {
          "indexed": true,
          "internalType": "address",
          "name": "user",
          "type": "address"
        },
        {
          "indexed": false,
          "internalType": "uint256",
          "name": "amount",
          "type": "uint256"
        }
      ],
      "name": "Withdrawn",
      "type": "event"
    },
    {
      "inputs": [],
      "name": "DEFAULT_ADMIN_ROLE",
      "outputs": [
        {
          "internalType": "bytes32",
          "name": "",
          "type": "bytes32"
        }
      ],
      "stateMutability": "view",
      "type": "function"
    },
    {
      "inputs": [],
      "name": "DISTRIBUTION_ASSIGNER_ROLE",
      "outputs": [
        {
          "internalType": "bytes32",
          "name": "",
          "type": "bytes32"
        }
      ],
      "stateMutability": "view",
      "type": "function"
    },
    {
      "inputs": [],
      "name": "DURATION",
      "outputs": [
        {
          "internalType": "uint256",
          "name": "",
          "type": "uint256"
        }
      ],
      "stateMutability": "view",
      "type": "function"
    },
    {
      "inputs": [],
      "name": "RECOVER_ROLE",
      "outputs": [
        {
          "internalType": "bytes32",
          "name": "",
          "type": "bytes32"
        }
      ],
      "stateMutability": "view",
      "type": "function"
    },
    {
      "inputs": [
        {
          "internalType": "address",
          "name": "account",
          "type": "address"
        }
      ],
      "name": "balanceOf",
      "outputs": [
        {
          "internalType": "uint256",
          "name": "",
          "type": "uint256"
        }
      ],
      "stateMutability": "view",
      "type": "function"
    },
    {
      "inputs": [
        {
          "internalType": "address",
          "name": "account",
          "type": "address"
        }
      ],
      "name": "earned",
      "outputs": [
        {
          "internalType": "uint256",
          "name": "",
          "type": "uint256"
        }
      ],
      "stateMutability": "view",
      "type": "function"
    },
    {
      "inputs": [],
      "name": "exit",
      "outputs": [],
      "stateMutability": "nonpayable",
      "type": "function"
    },
    {
      "inputs": [],
      "name": "getReward",
      "outputs": [],
      "stateMutability": "nonpayable",
      "type": "function"
    },
    {
      "inputs": [],
      "name": "getRewardForDuration",
      "outputs": [
        {
          "internalType": "uint256",
          "name": "",
          "type": "uint256"
        }
      ],
      "stateMutability": "view",
      "type": "function"
    },
    {
      "inputs": [
        {
          "internalType": "bytes32",
          "name": "role",
          "type": "bytes32"
        }
      ],
      "name": "getRoleAdmin",
      "outputs": [
        {
          "internalType": "bytes32",
          "name": "",
          "type": "bytes32"
        }
      ],
      "stateMutability": "view",
      "type": "function"
    },
    {
      "inputs": [
        {
          "internalType": "bytes32",
          "name": "role",
          "type": "bytes32"
        },
        {
          "internalType": "uint256",
          "name": "index",
          "type": "uint256"
        }
      ],
      "name": "getRoleMember",
      "outputs": [
        {
          "internalType": "address",
          "name": "",
          "type": "address"
        }
      ],
      "stateMutability": "view",
      "type": "function"
    },
    {
      "inputs": [
        {
          "internalType": "bytes32",
          "name": "role",
          "type": "bytes32"
        }
      ],
      "name": "getRoleMemberCount",
      "outputs": [
        {
          "internalType": "uint256",
          "name": "",
          "type": "uint256"
        }
      ],
      "stateMutability": "view",
      "type": "function"
    },
    {
      "inputs": [
        {
          "internalType": "bytes32",
          "name": "role",
          "type": "bytes32"
        },
        {
          "internalType": "address",
          "name": "account",
          "type": "address"
        }
      ],
      "name": "grantRole",
      "outputs": [],
      "stateMutability": "nonpayable",
      "type": "function"
    },
    {
      "inputs": [
        {
          "internalType": "bytes32",
          "name": "role",
          "type": "bytes32"
        },
        {
          "internalType": "address",
          "name": "account",
          "type": "address"
        }
      ],
      "name": "hasRole",
      "outputs": [
        {
          "internalType": "bool",
          "name": "",
          "type": "bool"
        }
      ],
      "stateMutability": "view",
      "type": "function"
    },
    {
      "inputs": [],
      "name": "lastTimeRewardApplicable",
      "outputs": [
        {
          "internalType": "uint256",
          "name": "",
          "type": "uint256"
        }
      ],
      "stateMutability": "view",
      "type": "function"
    },
    {
      "inputs": [],
      "name": "lastUpdateTime",
      "outputs": [
        {
          "internalType": "uint256",
          "name": "",
          "type": "uint256"
        }
      ],
      "stateMutability": "view",
      "type": "function"
    },
    {
      "inputs": [
        {
          "internalType": "uint256",
          "name": "reward",
          "type": "uint256"
        }
      ],
      "name": "notifyRewardAmount",
      "outputs": [],
      "stateMutability": "nonpayable",
      "type": "function"
    },
    {
      "inputs": [],
      "name": "periodFinish",
      "outputs": [
        {
          "internalType": "uint256",
          "name": "",
          "type": "uint256"
        }
      ],
      "stateMutability": "view",
      "type": "function"
    },
    {
      "inputs": [
        {
          "internalType": "address",
          "name": "tokenAddress",
          "type": "address"
        },
        {
          "internalType": "uint256",
          "name": "tokenAmount",
          "type": "uint256"
        }
      ],
      "name": "recoverERC20",
      "outputs": [],
      "stateMutability": "nonpayable",
      "type": "function"
    },
    {
      "inputs": [
        {
          "internalType": "bytes32",
          "name": "role",
          "type": "bytes32"
        },
        {
          "internalType": "address",
          "name": "account",
          "type": "address"
        }
      ],
      "name": "renounceRole",
      "outputs": [],
      "stateMutability": "nonpayable",
      "type": "function"
    },
    {
      "inputs": [
        {
          "internalType": "bytes32",
          "name": "role",
          "type": "bytes32"
        },
        {
          "internalType": "address",
          "name": "account",
          "type": "address"
        }
      ],
      "name": "revokeRole",
      "outputs": [],
      "stateMutability": "nonpayable",
      "type": "function"
    },
    {
      "inputs": [],
      "name": "rewardDistribution",
      "outputs": [
        {
          "internalType": "address",
          "name": "",
          "type": "address"
        }
      ],
      "stateMutability": "view",
      "type": "function"
    },
    {
      "inputs": [],
      "name": "rewardPerToken",
      "outputs": [
        {
          "internalType": "uint256",
          "name": "",
          "type": "uint256"
        }
      ],
      "stateMutability": "view",
      "type": "function"
    },
    {
      "inputs": [],
      "name": "rewardPerTokenStored",
      "outputs": [
        {
          "internalType": "uint256",
          "name": "",
          "type": "uint256"
        }
      ],
      "stateMutability": "view",
      "type": "function"
    },
    {
      "inputs": [],
      "name": "rewardRate",
      "outputs": [
        {
          "internalType": "uint256",
          "name": "",
          "type": "uint256"
        }
      ],
      "stateMutability": "view",
      "type": "function"
    },
    {
      "inputs": [],
      "name": "rewardToken",
      "outputs": [
        {
          "internalType": "contract IERC20",
          "name": "",
          "type": "address"
        }
      ],
      "stateMutability": "view",
      "type": "function"
    },
    {
      "inputs": [
        {
          "internalType": "address",
          "name": "",
          "type": "address"
        }
      ],
      "name": "rewards",
      "outputs": [
        {
          "internalType": "uint256",
          "name": "",
          "type": "uint256"
        }
      ],
      "stateMutability": "view",
      "type": "function"
    },
    {
      "inputs": [
        {
          "internalType": "address",
          "name": "_rewardDistribution",
          "type": "address"
        }
      ],
      "name": "setRewardDistribution",
      "outputs": [],
      "stateMutability": "nonpayable",
      "type": "function"
    },
    {
      "inputs": [
        {
          "internalType": "uint256",
          "name": "amount",
          "type": "uint256"
        }
      ],
      "name": "stake",
      "outputs": [],
      "stateMutability": "nonpayable",
      "type": "function"
    },
    {
      "inputs": [],
      "name": "stakeToken",
      "outputs": [
        {
          "internalType": "contract IERC20",
          "name": "",
          "type": "address"
        }
      ],
      "stateMutability": "view",
      "type": "function"
    },
    {
      "inputs": [],
      "name": "totalSupply",
      "outputs": [
        {
          "internalType": "uint256",
          "name": "",
          "type": "uint256"
        }
      ],
      "stateMutability": "view",
      "type": "function"
    },
    {
      "inputs": [
        {
          "internalType": "address",
          "name": "",
          "type": "address"
        }
      ],
      "name": "userRewardPerTokenPaid",
      "outputs": [
        {
          "internalType": "uint256",
          "name": "",
          "type": "uint256"
        }
      ],
      "stateMutability": "view",
      "type": "function"
    },
    {
      "inputs": [
        {
          "internalType": "uint256",
          "name": "amount",
          "type": "uint256"
        }
      ],
      "name": "withdraw",
      "outputs": [],
      "stateMutability": "nonpayable",
      "type": "function"
    }
  ],
  "transactionHash": "0xd648772cdf2733ee3cdaab20b4f2cf588d912d861aea68f92d6490bce70ee5cf",
  "args": [
    "0xdE4B9cBaD10cdFf96eE4b1f9C7568283e96C0089",
    "0x383dF49ad1f0219759a46399fE33Cb7A63cd051c",
    "0x24A6A37576377F63f194Caa5F518a60f45b42921",
    "0x0aacfbec6a24756c20d41914f2caba817c0d8521"
  ],
  "solcInputHash": "667cb37eefa4efb8db3033818d5e6216",
  "bytecode": "0x6080604052600060055560006006553480156200001b57600080fd5b50604051620022de380380620022de833981810160405260808110156200004157600080fd5b508051602082015160408301516060909301519192909183620000857f32d611cddb9575a9b749d29624cab333eb23b65b17d0995589b5ce4fba0af787826200010b565b506001600281905580546001600160a01b038086166001600160a01b031992831617909255600380548584169083161790556004805492841692909116919091179055620000d56000856200010b565b620001017f62b337eaefec74dadf1a62e856bf9db4f14a0f27d4f48156a95a9f98e7d5e066856200010b565b505050506200021f565b6200011782826200011b565b5050565b60008281526020818152604090912062000140918390620012fb62000194821b17901c565b15620001175762000150620001b4565b6001600160a01b0316816001600160a01b0316837f2f8788117e7eff1d82e926ec794901d17c78024a50270940304540a733656f0d60405160405180910390a45050565b6000620001ab836001600160a01b038416620001b8565b90505b92915050565b3390565b6000620001c6838362000207565b620001fe57508154600181810184556000848152602080822090930184905584548482528286019093526040902091909155620001ae565b506000620001ae565b60009081526001919091016020526040902054151590565b6120af806200022f6000396000f3fe608060405234801561001057600080fd5b506004361061020a5760003560e01c806380faa57d1161012a578063c8f33c91116100bd578063d547741f1161008c578063e9fad8ee11610071578063e9fad8ee146105a0578063ebe2b12b146105a8578063f7c618c1146105b05761020a565b8063d547741f1461055f578063df136d65146105985761020a565b8063c8f33c911461052a578063ca15c87314610532578063cd3daf9d1461054f578063d2ef3d0f146105575761020a565b806391d14854116100f957806391d14854146104b0578063939bcbc9146104fd578063a217fddf14610505578063a694fc3a1461050d5761020a565b806380faa57d146104195780638980f11f146104215780638b8763471461045a5780639010d07c1461048d5761020a565b80632e1a7d4d116101a25780633d18b912116101715780633d18b912146103ce57806351ed6a30146103d657806370a08231146103de5780637b0a47ee146104115761020a565b80632e1a7d4d146103225780632f2ff15d1461033f57806336568abe146103785780633c6b16ab146103b15761020a565b806318160ddd116101de57806318160ddd146102ed5780631be05289146102f55780631c1f78eb146102fd578063248a9ca3146103055761020a565b80628cc2621461020f5780630700037d146102545780630d68b76114610287578063101114cf146102bc575b600080fd5b6102426004803603602081101561022557600080fd5b503573ffffffffffffffffffffffffffffffffffffffff166105b8565b60408051918252519081900360200190f35b6102426004803603602081101561026a57600080fd5b503573ffffffffffffffffffffffffffffffffffffffff16610633565b6102ba6004803603602081101561029d57600080fd5b503573ffffffffffffffffffffffffffffffffffffffff16610645565b005b6102c4610712565b6040805173ffffffffffffffffffffffffffffffffffffffff9092168252519081900360200190f35b61024261072e565b610242610735565b61024261073c565b6102426004803603602081101561031b57600080fd5b5035610754565b6102ba6004803603602081101561033857600080fd5b5035610769565b6102ba6004803603604081101561035557600080fd5b508035906020013573ffffffffffffffffffffffffffffffffffffffff166108d4565b6102ba6004803603604081101561038e57600080fd5b508035906020013573ffffffffffffffffffffffffffffffffffffffff16610955565b6102ba600480360360208110156103c757600080fd5b50356109ea565b6102ba610ca1565b6102c4610d99565b610242600480360360208110156103f457600080fd5b503573ffffffffffffffffffffffffffffffffffffffff16610db5565b610242610ddd565b610242610de3565b6102ba6004803603604081101561043757600080fd5b5073ffffffffffffffffffffffffffffffffffffffff8135169060200135610df1565b6102426004803603602081101561047057600080fd5b503573ffffffffffffffffffffffffffffffffffffffff16610fd8565b6102c4600480360360408110156104a357600080fd5b5080359060200135610fea565b6104e9600480360360408110156104c657600080fd5b508035906020013573ffffffffffffffffffffffffffffffffffffffff16611009565b604080519115158252519081900360200190f35b610242611021565b610242611045565b6102ba6004803603602081101561052357600080fd5b503561104a565b6102426111b6565b6102426004803603602081101561054857600080fd5b50356111bc565b6102426111d3565b610242611221565b6102ba6004803603604081101561057557600080fd5b508035906020013573ffffffffffffffffffffffffffffffffffffffff16611245565b6102426112b8565b6102ba6112be565b6102426112d9565b6102c46112df565b73ffffffffffffffffffffffffffffffffffffffff81166000908152600a6020908152604080832054600990925282205461062d919061062790670de0b6b3a764000090610621906106129061060c6111d3565b9061131d565b61061b88610db5565b9061135f565b906113d2565b90611414565b92915050565b600a6020526000908152604090205481565b6106767f32d611cddb9575a9b749d29624cab333eb23b65b17d0995589b5ce4fba0af787610671611488565b611009565b6106cb576040517f08c379a0000000000000000000000000000000000000000000000000000000008152600401808060200182810382526058815260200180611dd16058913960600191505060405180910390fd5b600180547fffffffffffffffffffffffff00000000000000000000000000000000000000001673ffffffffffffffffffffffffffffffffffffffff92909216919091179055565b60015473ffffffffffffffffffffffffffffffffffffffff1681565b600b545b90565b62093a8081565b60065460009061074f9062093a8061135f565b905090565b60009081526020819052604090206002015490565b336107726111d3565b60085561077d610de3565b60075573ffffffffffffffffffffffffffffffffffffffff8116156107de576107a5816105b8565b73ffffffffffffffffffffffffffffffffffffffff82166000908152600a60209081526040808320939093556008546009909152919020555b60008211610837576040517f08c379a0000000000000000000000000000000000000000000000000000000008152600401808060200182810382526027815260200180611daa6027913960400191505060405180910390fd5b600b54610844908361131d565b600b55336000908152600c6020526040902054610861908361131d565b336000818152600c602052604090209190915560045461089a9173ffffffffffffffffffffffffffffffffffffffff909116908461148c565b60408051838152905133917f7084f5476618d8e60b11ef0d7d3f06914655adb8793e28ff7f018d4c76d505d5919081900360200190a25050565b6000828152602081905260409020600201546108f290610671611488565b610947576040517f08c379a000000000000000000000000000000000000000000000000000000000815260040180806020018281038252602f815260200180611d7b602f913960400191505060405180910390fd5b610951828261151e565b5050565b61095d611488565b73ffffffffffffffffffffffffffffffffffffffff168173ffffffffffffffffffffffffffffffffffffffff16146109e0576040517f08c379a000000000000000000000000000000000000000000000000000000000815260040180806020018281038252602f81526020018061204b602f913960400191505060405180910390fd5b61095182826115a1565b60015473ffffffffffffffffffffffffffffffffffffffff16610a0b611488565b73ffffffffffffffffffffffffffffffffffffffff1614610a77576040517f08c379a000000000000000000000000000000000000000000000000000000000815260040180806020018281038252605e815260200180611f56605e913960600191505060405180910390fd5b6000610a816111d3565b600855610a8c610de3565b60075573ffffffffffffffffffffffffffffffffffffffff811615610aed57610ab4816105b8565b73ffffffffffffffffffffffffffffffffffffffff82166000908152600a60209081526040808320939093556008546009909152919020555b6005544210610b0b57610b038262093a806113d2565b600655610b4d565b600554600090610b1b904261131d565b90506000610b346006548361135f90919063ffffffff16565b9050610b4762093a806106218684611414565b60065550505b600354604080517f70a08231000000000000000000000000000000000000000000000000000000008152306004820152905160009273ffffffffffffffffffffffffffffffffffffffff16916370a08231916024808301926020929190829003018186803b158015610bbe57600080fd5b505afa158015610bd2573d6000803e3d6000fd5b505050506040513d6020811015610be857600080fd5b50519050610bf98162093a806113d2565b6006541115610c53576040517f08c379a0000000000000000000000000000000000000000000000000000000008152600401808060200182810382526043815260200180611eb86043913960600191505060405180910390fd5b426007819055610c669062093a80611414565b6005556040805184815290517fde88a922e0d3b88b24e9623efeb464919c6bf9f66857a65e2bfcf2ce87a9433d9181900360200190a1505050565b33610caa6111d3565b600855610cb5610de3565b60075573ffffffffffffffffffffffffffffffffffffffff811615610d1657610cdd816105b8565b73ffffffffffffffffffffffffffffffffffffffff82166000908152600a60209081526040808320939093556008546009909152919020555b6000610d21336105b8565b9050801561095157336000818152600a6020526040812055600354610d5f9173ffffffffffffffffffffffffffffffffffffffff909116908361148c565b60408051828152905133917fe2403640ba68fed3a2f88b7557551d1993f84b99bb10ff833f0cf8db0c5e0486919081900360200190a25050565b60045473ffffffffffffffffffffffffffffffffffffffff1681565b73ffffffffffffffffffffffffffffffffffffffff166000908152600c602052604090205490565b60065481565b600061074f42600554611624565b610e1d7f62b337eaefec74dadf1a62e856bf9db4f14a0f27d4f48156a95a9f98e7d5e066610671611488565b610e72576040517f08c379a000000000000000000000000000000000000000000000000000000000815260040180806020018281038252604c815260200180611fb4604c913960600191505060405180910390fd5b60045473ffffffffffffffffffffffffffffffffffffffff83811691161415610ee6576040517f08c379a000000000000000000000000000000000000000000000000000000000815260040180806020018281038252603a815260200180611efb603a913960400191505060405180910390fd5b60035473ffffffffffffffffffffffffffffffffffffffff83811691161415610f5a576040517f08c379a0000000000000000000000000000000000000000000000000000000008152600401808060200182810382526039815260200180611e7f6039913960400191505060405180910390fd5b610f83610f65611488565b73ffffffffffffffffffffffffffffffffffffffff8416908361148c565b6040805173ffffffffffffffffffffffffffffffffffffffff841681526020810183905281517f8c1256b8896378cd5044f80c202f9772b9d77dc85c8a6eb51967210b09bfaa28929181900390910190a15050565b60096020526000908152604090205481565b6000828152602081905260408120611002908361163a565b9392505050565b60008281526020819052604081206110029083611646565b7f62b337eaefec74dadf1a62e856bf9db4f14a0f27d4f48156a95a9f98e7d5e06681565b600081565b336110536111d3565b60085561105e610de3565b60075573ffffffffffffffffffffffffffffffffffffffff8116156110bf57611086816105b8565b73ffffffffffffffffffffffffffffffffffffffff82166000908152600a60209081526040808320939093556008546009909152919020555b60008211611118576040517f08c379a00000000000000000000000000000000000000000000000000000000081526004018080602001828103825260218152602001806120006021913960400191505060405180910390fd5b600b546111259083611414565b600b55336000908152600c60205260409020546111429083611414565b336000818152600c602052604090209190915560045461117c9173ffffffffffffffffffffffffffffffffffffffff909116903085611668565b60408051838152905133917f9e71bc8eea02a63969f509818f2dafb9254532904319f9dbda79b67bd34a5f3d919081900360200190a25050565b60075481565b600081815260208190526040812061062d90611703565b60006111dd61072e565b6111ea5750600854610732565b61074f6112186111f861072e565b610621670de0b6b3a764000061061b60065461061b60075461060c610de3565b60085490611414565b7f32d611cddb9575a9b749d29624cab333eb23b65b17d0995589b5ce4fba0af78781565b60008281526020819052604090206002015461126390610671611488565b6109e0576040517f08c379a0000000000000000000000000000000000000000000000000000000008152600401808060200182810382526030815260200180611e4f6030913960400191505060405180910390fd5b60085481565b6112cf6112ca33610db5565b610769565b6112d7610ca1565b565b60055481565b60035473ffffffffffffffffffffffffffffffffffffffff1681565b60006110028373ffffffffffffffffffffffffffffffffffffffff841661170e565b600061100283836040518060400160405280601e81526020017f536166654d6174683a207375627472616374696f6e206f766572666c6f770000815250611758565b60008261136e5750600061062d565b8282028284828161137b57fe5b0414611002576040517f08c379a0000000000000000000000000000000000000000000000000000000008152600401808060200182810382526021815260200180611f356021913960400191505060405180910390fd5b600061100283836040518060400160405280601a81526020017f536166654d6174683a206469766973696f6e206279207a65726f000000000000815250611809565b60008282018381101561100257604080517f08c379a000000000000000000000000000000000000000000000000000000000815260206004820152601b60248201527f536166654d6174683a206164646974696f6e206f766572666c6f770000000000604482015290519081900360640190fd5b3390565b6040805173ffffffffffffffffffffffffffffffffffffffff8416602482015260448082018490528251808303909101815260649091019091526020810180517bffffffffffffffffffffffffffffffffffffffffffffffffffffffff167fa9059cbb00000000000000000000000000000000000000000000000000000000179052611519908490611888565b505050565b600082815260208190526040902061153690826112fb565b1561095157611543611488565b73ffffffffffffffffffffffffffffffffffffffff168173ffffffffffffffffffffffffffffffffffffffff16837f2f8788117e7eff1d82e926ec794901d17c78024a50270940304540a733656f0d60405160405180910390a45050565b60008281526020819052604090206115b99082611960565b15610951576115c6611488565b73ffffffffffffffffffffffffffffffffffffffff168173ffffffffffffffffffffffffffffffffffffffff16837ff6391f5c32d9c69d2a47ea670b442974b53935d1edc7fd64eb21e047a839171b60405160405180910390a45050565b60008183106116335781611002565b5090919050565b60006110028383611982565b60006110028373ffffffffffffffffffffffffffffffffffffffff8416611a00565b6040805173ffffffffffffffffffffffffffffffffffffffff80861660248301528416604482015260648082018490528251808303909101815260849091019091526020810180517bffffffffffffffffffffffffffffffffffffffffffffffffffffffff167f23b872dd000000000000000000000000000000000000000000000000000000001790526116fd908590611888565b50505050565b600061062d82611a18565b600061171a8383611a00565b6117505750815460018181018455600084815260208082209093018490558454848252828601909352604090209190915561062d565b50600061062d565b60008184841115611801576040517f08c379a00000000000000000000000000000000000000000000000000000000081526004018080602001828103825283818151815260200191508051906020019080838360005b838110156117c65781810151838201526020016117ae565b50505050905090810190601f1680156117f35780820380516001836020036101000a031916815260200191505b509250505060405180910390fd5b505050900390565b60008183611872576040517f08c379a00000000000000000000000000000000000000000000000000000000081526020600482018181528351602484015283519092839260449091019190850190808383600083156117c65781810151838201526020016117ae565b50600083858161187e57fe5b0495945050505050565b60606118ea826040518060400160405280602081526020017f5361666545524332303a206c6f772d6c6576656c2063616c6c206661696c65648152508573ffffffffffffffffffffffffffffffffffffffff16611a1c9092919063ffffffff16565b8051909150156115195780806020019051602081101561190957600080fd5b5051611519576040517f08c379a000000000000000000000000000000000000000000000000000000000815260040180806020018281038252602a815260200180612021602a913960400191505060405180910390fd5b60006110028373ffffffffffffffffffffffffffffffffffffffff8416611a33565b815460009082106119de576040517f08c379a0000000000000000000000000000000000000000000000000000000008152600401808060200182810382526022815260200180611d596022913960400191505060405180910390fd5b8260000182815481106119ed57fe5b9060005260206000200154905092915050565b60009081526001919091016020526040902054151590565b5490565b6060611a2b8484600085611b17565b949350505050565b60008181526001830160205260408120548015611b0d5783547fffffffffffffffffffffffffffffffffffffffffffffffffffffffffffffffff8083019190810190600090879083908110611a8457fe5b9060005260206000200154905080876000018481548110611aa157fe5b600091825260208083209091019290925582815260018981019092526040902090840190558654879080611ad157fe5b6001900381819060005260206000200160009055905586600101600087815260200190815260200160002060009055600194505050505061062d565b600091505061062d565b606082471015611b72576040517f08c379a0000000000000000000000000000000000000000000000000000000008152600401808060200182810382526026815260200180611e296026913960400191505060405180910390fd5b611b7b85611cd2565b611be657604080517f08c379a000000000000000000000000000000000000000000000000000000000815260206004820152601d60248201527f416464726573733a2063616c6c20746f206e6f6e2d636f6e7472616374000000604482015290519081900360640190fd5b600060608673ffffffffffffffffffffffffffffffffffffffff1685876040518082805190602001908083835b60208310611c5057805182527fffffffffffffffffffffffffffffffffffffffffffffffffffffffffffffffe09092019160209182019101611c13565b6001836020036101000a03801982511681845116808217855250505050505090500191505060006040518083038185875af1925050503d8060008114611cb2576040519150601f19603f3d011682016040523d82523d6000602084013e611cb7565b606091505b5091509150611cc7828286611cd8565b979650505050505050565b3b151590565b60608315611ce7575081611002565b825115611cf75782518084602001fd5b6040517f08c379a00000000000000000000000000000000000000000000000000000000081526020600482018181528451602484015284518593919283926044019190850190808383600083156117c65781810151838201526020016117ae56fe456e756d657261626c655365743a20696e646578206f7574206f6620626f756e6473416363657373436f6e74726f6c3a2073656e646572206d75737420626520616e2061646d696e20746f206772616e74506861736532506f6f6c3a3a77697468647261773a2043616e6e6f742077697468647261772030526577617264446973747269627574696f6e526563697069656e743a3a736574526577617264446973747269627574696f6e3a206d757374206861766520646973747269627574696f6e2061737369676e657220726f6c65416464726573733a20696e73756666696369656e742062616c616e636520666f722063616c6c416363657373436f6e74726f6c3a2073656e646572206d75737420626520616e2061646d696e20746f207265766f6b65506861736532506f6f6c3a3a7265636f76657245524332303a2043616e6e6f74207265636f766572207468652072657761726420746f6b656e506861736532506f6f6c3a3a6e6f74696679526577617264416d6f756e743a20496e737566666963656e742062616c616e636520666f72207265776172642072617465506861736532506f6f6c3a3a7265636f76657245524332303a2043616e6e6f74207265636f76657220746865207374616b696e6720746f6b656e536166654d6174683a206d756c7469706c69636174696f6e206f766572666c6f775265776172644469737269627574696f6e526563697069656e743a3a6f6e6c79526577617264446973747269627574696f6e3a2043616c6c6572206973206e6f742052657761726473446973747269627574696f6e20636f6e7472616374506861736532506f6f6c3a3a7265636f76657245524332303a20596f75206d75737420706f737365737320746865207265636f76657220726f6c6520746f207265636f766572206572633230506861736532506f6f6c3a3a7374616b653a2043616e6e6f74207374616b6520305361666545524332303a204552433230206f7065726174696f6e20646964206e6f742073756363656564416363657373436f6e74726f6c3a2063616e206f6e6c792072656e6f756e636520726f6c657320666f722073656c66a2646970667358221220d4664f46ad3c436d46238e00a493898d81f7c5a4bf6204dd4444acf53323802e64736f6c63430007040033",
  "devdoc": {
    "kind": "dev",
    "methods": {
      "constructor": {
        "params": {
          "_admin": "The default role controller for ",
          "_rewardDistribution": "The reward distributor (can change reward rate)",
          "_rewardToken": "The reward token to distribute",
          "_stakingToken": "The staking token used to qualify for rewards"
        }
      },
      "getRoleAdmin(bytes32)": {
        "details": "Returns the admin role that controls `role`. See {grantRole} and {revokeRole}. To change a role's admin, use {_setRoleAdmin}."
      },
      "getRoleMember(bytes32,uint256)": {
        "details": "Returns one of the accounts that have `role`. `index` must be a value between 0 and {getRoleMemberCount}, non-inclusive. Role bearers are not sorted in any particular way, and their ordering may change at any point. WARNING: When using {getRoleMember} and {getRoleMemberCount}, make sure you perform all queries on the same block. See the following https://forum.openzeppelin.com/t/iterating-over-elements-on-enumerableset-in-openzeppelin-contracts/2296[forum post] for more information."
      },
      "getRoleMemberCount(bytes32)": {
        "details": "Returns the number of accounts that have `role`. Can be used together with {getRoleMember} to enumerate all bearers of a role."
      },
      "grantRole(bytes32,address)": {
        "details": "Grants `role` to `account`. If `account` had not been already granted `role`, emits a {RoleGranted} event. Requirements: - the caller must have ``role``'s admin role."
      },
      "hasRole(bytes32,address)": {
        "details": "Returns `true` if `account` has been granted `role`."
      },
      "notifyRewardAmount(uint256)": {
        "params": {
          "reward": "number of tokens to be distributed over the duration."
        }
      },
      "recoverERC20(address,uint256)": {
        "details": "Sourced from synthetix/contracts/StakingRewards.sol"
      },
      "renounceRole(bytes32,address)": {
        "details": "Revokes `role` from the calling account. Roles are often managed via {grantRole} and {revokeRole}: this function's purpose is to provide a mechanism for accounts to lose their privileges if they are compromised (such as when a trusted device is misplaced). If the calling account had been granted `role`, emits a {RoleRevoked} event. Requirements: - the caller must be `account`."
      },
      "revokeRole(bytes32,address)": {
        "details": "Revokes `role` from `account`. If `account` had been granted `role`, emits a {RoleRevoked} event. Requirements: - the caller must have ``role``'s admin role."
      }
    },
    "title": "Phase 2 BANK Reward Pool for Float Protocol",
    "version": 1
  },
  "userdoc": {
    "kind": "user",
    "methods": {
      "constructor": {
        "notice": "Construct a new Phase2Pool"
      },
      "notifyRewardAmount(uint256)": {
        "notice": "Should be called after the amount of reward tokens has been sent to the contract. Reward should be divisible by duration."
      },
      "recoverERC20(address,uint256)": {
        "notice": "Provide accidental token retrieval. "
      }
    },
    "notice": "This contract is used to reward `rewardToken` when `stakeToken` is staked.",
    "version": 1
  },
  "storageLayout": {
    "storage": [
      {
        "astId": 45,
        "contract": "contracts/staking/Phase2Pool.sol:Phase2Pool",
        "label": "_roles",
        "offset": 0,
        "slot": "0",
        "type": "t_mapping(t_bytes32,t_struct(RoleData)41_storage)"
      },
      {
        "astId": 5617,
        "contract": "contracts/staking/Phase2Pool.sol:Phase2Pool",
        "label": "rewardDistribution",
        "offset": 0,
        "slot": "1",
        "type": "t_address"
      },
      {
        "astId": 2289,
        "contract": "contracts/staking/Phase2Pool.sol:Phase2Pool",
        "label": "_status",
        "offset": 0,
        "slot": "2",
        "type": "t_uint256"
      },
      {
        "astId": 5036,
        "contract": "contracts/staking/Phase2Pool.sol:Phase2Pool",
        "label": "rewardToken",
        "offset": 0,
        "slot": "3",
        "type": "t_contract(IERC20)1251"
      },
      {
        "astId": 5038,
        "contract": "contracts/staking/Phase2Pool.sol:Phase2Pool",
        "label": "stakeToken",
        "offset": 0,
        "slot": "4",
        "type": "t_contract(IERC20)1251"
      },
      {
        "astId": 5041,
        "contract": "contracts/staking/Phase2Pool.sol:Phase2Pool",
        "label": "periodFinish",
        "offset": 0,
        "slot": "5",
        "type": "t_uint256"
      },
      {
        "astId": 5044,
        "contract": "contracts/staking/Phase2Pool.sol:Phase2Pool",
        "label": "rewardRate",
        "offset": 0,
        "slot": "6",
        "type": "t_uint256"
      },
      {
        "astId": 5046,
        "contract": "contracts/staking/Phase2Pool.sol:Phase2Pool",
        "label": "lastUpdateTime",
        "offset": 0,
        "slot": "7",
        "type": "t_uint256"
      },
      {
        "astId": 5048,
        "contract": "contracts/staking/Phase2Pool.sol:Phase2Pool",
        "label": "rewardPerTokenStored",
        "offset": 0,
        "slot": "8",
        "type": "t_uint256"
      },
      {
        "astId": 5052,
        "contract": "contracts/staking/Phase2Pool.sol:Phase2Pool",
        "label": "userRewardPerTokenPaid",
        "offset": 0,
        "slot": "9",
        "type": "t_mapping(t_address,t_uint256)"
      },
      {
        "astId": 5056,
        "contract": "contracts/staking/Phase2Pool.sol:Phase2Pool",
        "label": "rewards",
        "offset": 0,
        "slot": "10",
        "type": "t_mapping(t_address,t_uint256)"
      },
      {
        "astId": 5058,
        "contract": "contracts/staking/Phase2Pool.sol:Phase2Pool",
        "label": "_totalSupply",
        "offset": 0,
        "slot": "11",
        "type": "t_uint256"
      },
      {
        "astId": 5062,
        "contract": "contracts/staking/Phase2Pool.sol:Phase2Pool",
        "label": "_balances",
        "offset": 0,
        "slot": "12",
        "type": "t_mapping(t_address,t_uint256)"
      }
    ],
    "types": {
      "t_address": {
        "encoding": "inplace",
        "label": "address",
        "numberOfBytes": "20"
      },
      "t_array(t_bytes32)dyn_storage": {
        "base": "t_bytes32",
        "encoding": "dynamic_array",
        "label": "bytes32[]",
        "numberOfBytes": "32"
      },
      "t_bytes32": {
        "encoding": "inplace",
        "label": "bytes32",
        "numberOfBytes": "32"
      },
      "t_contract(IERC20)1251": {
        "encoding": "inplace",
        "label": "contract IERC20",
        "numberOfBytes": "20"
      },
      "t_mapping(t_address,t_uint256)": {
        "encoding": "mapping",
        "key": "t_address",
        "label": "mapping(address => uint256)",
        "numberOfBytes": "32",
        "value": "t_uint256"
      },
      "t_mapping(t_bytes32,t_struct(RoleData)41_storage)": {
        "encoding": "mapping",
        "key": "t_bytes32",
        "label": "mapping(bytes32 => struct AccessControl.RoleData)",
        "numberOfBytes": "32",
        "value": "t_struct(RoleData)41_storage"
      },
      "t_mapping(t_bytes32,t_uint256)": {
        "encoding": "mapping",
        "key": "t_bytes32",
        "label": "mapping(bytes32 => uint256)",
        "numberOfBytes": "32",
        "value": "t_uint256"
      },
      "t_struct(AddressSet)1984_storage": {
        "encoding": "inplace",
        "label": "struct EnumerableSet.AddressSet",
        "members": [
          {
            "astId": 1983,
            "contract": "contracts/staking/Phase2Pool.sol:Phase2Pool",
            "label": "_inner",
            "offset": 0,
            "slot": "0",
            "type": "t_struct(Set)1719_storage"
          }
        ],
        "numberOfBytes": "64"
      },
      "t_struct(RoleData)41_storage": {
        "encoding": "inplace",
        "label": "struct AccessControl.RoleData",
        "members": [
          {
            "astId": 38,
            "contract": "contracts/staking/Phase2Pool.sol:Phase2Pool",
            "label": "members",
            "offset": 0,
            "slot": "0",
            "type": "t_struct(AddressSet)1984_storage"
          },
          {
            "astId": 40,
            "contract": "contracts/staking/Phase2Pool.sol:Phase2Pool",
            "label": "adminRole",
            "offset": 0,
            "slot": "2",
            "type": "t_bytes32"
          }
        ],
        "numberOfBytes": "96"
      },
      "t_struct(Set)1719_storage": {
        "encoding": "inplace",
        "label": "struct EnumerableSet.Set",
        "members": [
          {
            "astId": 1714,
            "contract": "contracts/staking/Phase2Pool.sol:Phase2Pool",
            "label": "_values",
            "offset": 0,
            "slot": "0",
            "type": "t_array(t_bytes32)dyn_storage"
          },
          {
            "astId": 1718,
            "contract": "contracts/staking/Phase2Pool.sol:Phase2Pool",
            "label": "_indexes",
            "offset": 0,
            "slot": "1",
            "type": "t_mapping(t_bytes32,t_uint256)"
          }
        ],
        "numberOfBytes": "64"
      },
      "t_uint256": {
        "encoding": "inplace",
        "label": "uint256",
        "numberOfBytes": "32"
      }
    }
  }
}